:10000000184E0020118F00005D6600006166000040
:10001000A70A0A010001000004180FAC502ACC0006
:1000200000000000000000000000000000000000D0
:1000300000000000F0690300000000000000000064
:100040000000000000000000FFFFFFFFFFFFFFFFB8
:10005000FFFFFFFF00E007000000000000000000BD
:10006000FFFFFFFFFFFFFFFF280000000000000070
:100070000000000000000000000000000000000080
:100080000000000000000000148A0020148A0020F4
:10009000184E002044B90300F84F0300403F0020F1
:0C00A000203F00200000080000000000CD
:10010000184E0020118F00005D660000616600003F
:1001100069660000656600006D6600000D8F0000D6
:100120000D8F00000D8F00000D8F00000D8F00005F
:10013000716600000D8F00000D8F00000D8F000014
:1001400061340000D13A0300056B0000FC67000039
:10015000193403003D3B0300DD3A0300F53A030088
:10016000D53A0300952B0000692C00005146000091
:100170007D860000FC670000FC6700006909000044
:100180000D8F0000FC6700008D2C00004909000065
:10019000FC670000FC670000FC670000FC670000D3
:1001A000FC670000FC670000FC670000FC670000C3
:1001B000413B0300D93A030019260300E531000052
:1001C000813B0300FC67000079020300FC6700002C
:1001D000FC670000FC670000FC670000FC67000093
:1001E000FC6700000D8F00000D8F0000FC67000011
:0C01F000FC670000FC6700000D8F0000A1
:1001FC00F8B500BFF8BC08BC9E467047F8B500BF08
:10020C00F8BC08BC9E46704710B5054C237833B932
:10021C00044B13B10448AFF300800123237010BDCD
:10022C0038550020000000001CB2030008B5034B39
:10023C001BB103490348AFF3008008BD0000000068
:10024C003C5500201CB20300154B002B08BF134B70
:10025C009D46A3F5803A00218B460F461348144A5D
:10026C00121A34F051FE0F4B002B00D098470E4B56
:10027C00002B00D098470020002104000D000D48F1
:10028C00002802D00C48AFF3008034F0ADFD200004
:10029C00290007F05BF934F093FD00BF0000080063
:1002AC00184E00200000000000000000385500200F
:1002BC00148A002000000000000000000C490D4BC7
:1002CC0010B5002A14BF0A461A4604460A490120F2
:1002DC0001F00AFF012001F0EFFE10B1204601F001
:1002EC0029FF06490120BDE8104001F00EBF00BFF8
:1002FC00305203003952030046520300305C0300B5
:10030C00012070470120704701207047062804D057
:10031C0007280CBF01200220704700207047000006
:10032C002DE9F04385B04FF48073ADF80C3002F03A
:10033C0079FC01211548DFF85C80DFF85C9004F053
:10034C0061FB0121124804F05DFB0024012703AB83
:10035C000122E35C18F8336008EBC30330465D6898
:10036C000023294605F0B6FB4946E8B202F068FCCA
:10037C00CDE9007701232A462946304605F05EFB7D
:10038C0014B105B0BDE8F0830124E0E7404105005D
:10039C0000350A004C5203002D04000008B5FFF78D
:1003AC00B5FF022816BF024B0020185C08BD00BF29
:1003BC005455002008B5FFF7A9FF02281CBF014BBC
:1003CC00195408BD5455002008B5FFF79FFF0228AB
:1003DC0005D0034A135CB3FA83F35B09135408BDCD
:1003EC005455002008B5FFF791FF022811D00A4A96
:1003FC0012F8301030234B4302EBC002074919446A
:10040C00536803EBC1039B001868B0FA80F04009F5
:10041C0008BD0020FCE700BF4C5203001CA010429A
:10042C0070B50446FFF7DEFF0026054601E0002606
:10043C001D462046FFF7D6FFA8420346F7D10136EA
:10044C00052EF2D12046FFF7A9FFA8420BD0294672
:10045C002046FFF7AFFF2046FFF7A0FF01462046DE
:10046C0000F0EDFB70BD2046FFF7AEFF2046FFF716
:10047C0095FF0146204600F0E2FB2046FFF7A4FF63
:10048C00E9E7000008B52021002001F035FB30B170
:10049C00034A04490120BDE8084001F025BE08BD0F
:1004AC005C5203006552030010B596B05622002131
:1004BC00074C684634F028FD68460FF0D7F8204604
:1004CC001022694606F096F9204616B010BD00BF02
:1004DC006E550020024B187002480EF0A9B800BFF0
:1004EC0090550020CC7E002010B5124B1B78042BAD
:1004FC00044604D040F28B110F4805F035FF102252
:10050C0021460E4806F076F901200D4901F0ECFD6C
:10051C00012001F0D1FD10B1204601F00BFE09497C
:10052C00012001F0F2FD00210520BDE81040FFF78D
:10053C00D1BF00BF905500207A5203008055002097
:10054C0095520300305C0300F0B5274B1F8893B025
:10055C0022237F2205460C4609A8394606F04CFAA0
:10056C00BDF844204FF6FF739A4233D11F4B6A46B5
:10057C0003F1200C18685968164603C60833634506
:10058C003246F7D11B783370002323702378072B66
:10059C0013D90022EA541649012001F0B6FD227845
:1005AC00ADF84420294609A806F024F9222209A90D
:1005BC00384606F045FA13B0F0BD06F0D1FC12AA8D
:1005CC0000F01F001044237810F8482CEA542378CC
:1005DC000133DAE7227009A9D2B2284606F00AF9EB
:1005EC0023780022EA54E6E7466B0300905303009D
:1005FC00765303001F4B10B500241C70052836D809
:10060C00DFE800F0030B37192F11022931D11A49F9
:10061C000120BDE8104001F078BD00210120BDE8AB
:10062C001040FFF757BF032923D114490120BDE81F
:10063C00104001F06ABD124B1A78012A0FD0114CF0
:10064C00114B022A18BF1C46FFF72EFF0F49034619
:10065C002246012001F059FD00210420DFE70C4C5B
:10066C00F2E7E3210B48BDE8104005F07DBEE62122
:10067C00F8E710BDCC7E0020EA52030004530300BF
:10068C0090550020E3520300C55203001C53030095
:10069C00CE5203007A52030010B50B4B1B78012B82
:1006AC00044603D0F421094805F05EFE54B12246FD
:1006BC000749012001F029FD00210220BDE810406E
:1006CC00FFF708BF10BD00BF905500207A52030001
:1006DC005A53030008B50EF097FE014620B90220CC
:1006EC00BDE80840FFF7F6BE08BD000000B58BB0B2
:1006FC000DF1030101A8FFF727FF01AA034901200F
:10070C0001F003FD0BB05DF804FB00BFB153030017
:10071C0008B5024650B10649012001F0F6FC054B24
:10072C0000211878BDE80840FFF7D4BE08BD00BF13
:10073C002C530300905500201FB5124B1B78042B33
:10074C000DD107981030FFF7CFFE0F4B1A7822B956
:10075C000E4A07A9116001221A70442100E0A3215E
:10076C004B09022B079802D00378FF2B06D00023ED
:10077C00CDE9013300931A4626F030FE05B05DF842
:10078C0004FB00BF905500206C550020EC78002035
:10079C001FB50C4B1B78042B0CD100211022684682
:1007AC0034F0B2FB6946002001F07AF928B16846B2
:1007BC00FFF79AFE05B05DF804FB0349012001F038
:1007CC00A4FCF7E7905500206A52030030B50121D4
:1007DC0087B005462B4804F015F901212A4804F08E
:1007EC0011F900241F232146ADF8063027488DF857
:1007FC000440FF23CDE903448DF805408DF81130FA
:10080C008DF808408DF80940059403F0DFFF8DF852
:10081C000700204604F044F88DF812408DF80F4084
:10082C008DF80D401A4C8DF80600032301A92046C3
:10083C008DF80E308DF8105003F0E6FF03A920461A
:10084C0003F076FF636C43F001036364114B4FF4C8
:10085C000042C3F880211A600F4B1A7882B90F4AF4
:10086C00127812B10E4AAA2111600E4900220A70A8
:10087C000D490A700D490A700D490A7001221A704F
:10088C0007B030BD4041050000B204000024F40064
:10089C000020004000E100E056550020304E0020C2
:1008AC00204E0020915500206B5500206A550020E9
:1008BC0069550020F0B51C4D1C4889B0002601215B
:1008CC0004F0A0F80127022301AA31462846CDE9FD
:1008DC00016603968DF80A308DF8097005F059FB06
:1008EC00134804F071F9134B1C68B0FBF4F4013C91
:1008FC000D223146EC6104A834F006FB8DF8107023
:10090C0028466C6604A905F0F1FAAB6943F01003B4
:10091C00AB61094B4FF400222046C3F880211A60CA
:10092C006F6009B0F0BD00BF0084014000120400EC
:10093C0040410500344E002000E100E0044BDA6831
:10094C005A61044B1B7813B9034B01229A60704710
:10095C00008401406055002000200040F8B5204A7A
:10096C0020491378204DC85C204C072829D8AD6C41
:10097C0026681F4FC5F3890527F816500A2829D178
:10098C0019482668806C1A4DC0F3890025F81600AA
:10099C000133DBB2542B88BF002313701378154A34
:1009AC00CB5CD05CFFF712FF134A2368126801334B
:1009BC009342236022BF114B01221A700A4B9B6C8D
:1009CC00F8BD082809D1A86C2668094DC0F3890028
:1009DC0025F816000B2BDBD1D2E70928F3D0CDE795
:1009EC00915500204D4E0020002000406455002001
:1009FC00346D0020244E0020204E00206055002035
:100A0C001C4B1D49F0B51D4F1E683A463D46D31B85
:100A1C009E4201F108010BD8194A3544137805F8A8
:100A2C00013C0133DBB2552B08BF00231370F0BD22
:100A3C0031F8084CA308137031F8063C9808507034
:100A4C0031F8040C9B0A4FEA900C82F802C0A40AFD
:100A5C0031F802CC1B0103EB841303EB9C23800ABB
:100A6C004FEA9C0E03EB800382F803E0137105320E
:100A7C00CDE700BF384E0020346D0020F078002008
:100A8C007F5500202DE9F743384C2378052B04D0F3
:100A9C0040F24621364805F067FC364B364E374D52
:100AAC0000221A6032702A785AB9354B354A1B78B5
:100ABC00D35C354AD05CFFF789FE01232B70FFF71E
:100ACC00F9FE324D3378002B3ED0314B314D187836
:100ADC00314E00283DD1FFF793FF2B685A8C198CAF
:100AEC002E4B01961B8800932D4B2E481FF0C6FAF7
:100AFC00054610BB2C4E33680133642B33601CD974
:100B0C002A4A2B4F1378DFF8C0900133137008F08A
:100B1C0019FB3B68274A2849C31A0193B9F80030DE
:100B2C000093264B12681B688046012001F0EDFAF9
:100B3C00A9F80050C7F8008035602078002103B078
:100B4C00BDE8F043FFF7C6BC2946012001F0CCFA02
:100B5C00B8E71B491B4800F005F92B685A8C198C17
:100B6C0001968D230093174BBFE700BF90550020D3
:100B7C007A52030064550020605500206D5500200A
:100B8C00915500204D4E0020244E0020305C030077
:100B9C00304E0020EC7800204C4E0020384E0020C7
:100BAC00F07800203C4E00205C5500206855002059
:100BBC0094550020204E0020D0530300344E0020CA
:100BCC00346D0020086C002058550020034B1B7816
:100BDC00052B01D1FFF756BF704700BF9055002081
:100BEC0008B50D4B1B78053B012B14D801200B4984
:100BFC0001F07AFA012001F05FFA10B1084801F017
:100C0C0099FA0849012001F080FA00210420BDE87E
:100C1C000840FFF75FBC08BD90550020AC520300A4
:100C2C0080550020305C030018B90249012001F006
:100C3C006CBA704746530300704700207047012977
:100C4C0008B50AD1072808D10EF0DEFB014620B901
:100C5C000220BDE80840FFF73DBC08BD10B5374B7E
:100C6C00374C00221A702278013AA0B0062A5ED8BE
:100C7C00DFE802F0040F5D49530D5600FFF714FC3A
:100C8C0030490246012001F040FA0EF09BFE20B0E4
:100C9C0010BD562200210AA834F036F92122002179
:100CAC0001A834F031F9102227490AA805F0A2FD59
:100CBC0003238DF84B300DF17D010A2301A88DF82B
:100CCC004C30FFF741FC9DF87D2001A90DF15D0032
:100CDC0005F090FD01201C4A1C4901F005FA012089
:100CEC0001F0EAF918B10EF08BFB01F09DFA01AAA4
:100CFC001749012001F009FA164A40F231110AA8ED
:100D0C0011F0CCF9C3E71449012001F0FEF947F2C8
:100D1C0030512078FFF7DEFBB9E7FFF7B3FEB6E7FB
:100D2C000E49012001F0F1F90EF044FEAFE740F25C
:100D3C00EA210B4805F018FBA9E700BFCC7E002088
:100D4C009055002028540300C05303004B5403005B
:100D5C006C54030000F8FF077F540300AA540300EF
:100D6C007A5203002DE9F04F87B046230093844E4E
:100D7C00A0F146034FF00F0E00220493049B009C3D
:100D8C001C19231A9E4523D87446009B9C4263D39E
:100D9C004633D22B0EF1460E0093EFD179490B78E6
:100DAC00A3F16A0280F88C2077480288013292B253
:100DBC000133DBB2B2F57A7F08BF0022322B0B7005
:100DCC0008BF0123028008BF0B7007B0BDE8F08F8D
:100DDC00550031F81230237005F1020805F1040CAE
:100DEC0031F80830637031F80C30A3700635552794
:100DFC004B5BE37031F812304FEA13294B5B1B0A43
:100E0C0043EA891331F808904FEA192943EA091388
:100E1C0031F80C904FEA192943EA89032371B2FB8C
:100E2C00F7F307FB13239BB231F8129026F81390BB
:100E3C0031F8089003F10108043226F8189031F8C3
:100E4C000C8003F1020C033326F81C804D5B26F852
:100E5C00135092B2053494E7342A01D0892A10D168
:100E6C0031F81250338A5B1B9BB213F020051CBF68
:100E7C005B429BB203F01F032B430132035592B22A
:100E8C00013401EB42030193E31CC3180293231DAD
:100E9C00C31804F1050804F10109002500EB040A4C
:100EAC00039380448144019F6B0037F815C0059370
:100EBC0036F81530A3EB0C039BB213F0200C1CBFBF
:100ECC005B429BB203F01F03032D43EA0C035FFA52
:100EDC0085FC27D19AF800B04FEA830C2CF03F0C1C
:100EEC004CEA0B0C8AF800C099F800B04FEA031CCE
:100EFC002CF03F0C4CEA0B0C04F1020B89F800C0EF
:100F0C0010F80BC04CEA831300F80B30019B6F00F8
:100F1C0033F81530F3530135082DC4D1083292B291
:100F2C00063432E7BCF1070F1CD1029F4FEA830C49
:100F3C0097F800B02CF03F0C4CEA0B0C87F800C073
:100F4C00039F4FEA031C97F800B02CF03F0C4CEABF
:100F5C000B0C87F800C098F800C04CEA831388F893
:100F6C000030D3E7BCF1020F84BF04EB050C8444C2
:100F7C00DBB294BF0AF805300CF8013CC6E700BFA1
:100F8C00985500207F550020B0550020FFF755BE26
:100F9C0000F023B800F022B800F022B800F022B81C
:100FAC0008B500F0E5FBBDE8084000F01CB808B53A
:100FBC00FFF768FA06F00EF906F0EAF90EF0C4F93C
:100FCC0000F012F8BDE8084007F024B900F009B8A9
:100FDC00FFF710BB70477047704770470120704790
:100FEC0070477047704770477047000038B5A0F1E4
:100FFC00430305460A2B31D8DFE803F0060A0A1230
:10100C001230303030301100BDE8384033F05EBC67
:10101C0033F028FC20B133F059FC0028FBD138BD4B
:10102C00124C20780028FAD10123443D237007F09C
:10103C0051FD032D0DD8DFE805F00606090240F638
:10104C00010008F017F800232370E8E740F60200CF
:10105C00F7E7F221064805F087F9F4E74FF48271BF
:10106C000348BDE8384005F07FB900BFB2550020F9
:10107C00C25403000020704770477047002070472F
:10108C00704770477047704770477047704770479C
:10109C007047704700207047704770477047704723
:1010AC0070477047704770470020704770470020AA
:1010BC00704770477047704770477047704770476C
:1010CC00704770477047704770477047704770475C
:1010DC0008F0FABA10B4BDF8084002945DF8044B5D
:1010EC00FFF7AABD2DE9F04FA5B080468A46002037
:1010FC0006A900F0D5FC48B90220424B424A4349AC
:10110C0001F003F8022025B0BDE8F08F002101208A
:10111C0000F026FC16AF3822002181460024384608
:10112C0033F0F2FEADF8164000F028FB022857D938
:10113C000DF11601022000F043FC064600F01EFBE8
:10114C00032806D92146032000F00AFC03788DF809
:10115C008C302F4C22684FF6FF739A420AAD41D067
:10116C002C49022000F0D1FF22680C21284626F0E1
:10117C006FF90124DFF8B0B0DBF800204FF6FF73F5
:10118C009A420BD02449022000F0BFFF05EB04105B
:10119C00DBF80020112126F05BF90134DFF88CB06C
:1011AC00DBF800204FF6FF739A420BD01B4902204C
:1011BC0000F0ABFF05EB0410DBF80020172126F044
:1011CC0047F901341C958DF87440BAF1000F0BD01F
:1011DC000220134B0C4A0D4900F097FF012092E7B7
:1011EC002646B6E70024C5E70E4B0193BDF8163032
:1011FC000093029733464A46414606A825F0A6FEC0
:10120C0081E700BF3C5A0300475A03004B5A0300C6
:10121C00AC4E0020525A03006D5A0300875A03004B
:10122C00A55A03003D120000A44E0020A84E002039
:10123C002DE9F0439BB004460D4602203D49BDF814
:10124C0088601746984600F04FFF204625F0DAFBE1
:10125C0039490246022000F047FF002C50D02846A6
:10126C0025F0A8FB34490246022000F03DFF002285
:10127C001146384625F068FC431C054624D06422F0
:10128C00002101A833F040FEA8B263283FD90130F9
:10129C00002180B20CF0FEFB00283CD00CF058F87A
:1012AC004FF000090446AAB22146384625F04CFC02
:1012BC0022462249022000F017FFB9F1000F03D09B
:1012CC001F49022000F010FFD6B101AA0C213846AC
:1012DC0025F027FC20B3019C204625F07FFB194903
:1012EC000246022000F000FF0CB1282C1BD102207A
:1012FC0000F0E2FE20B132464146022000F076FFBB
:10130C001149022000F001FF1BB0BDE8F0834FF043
:10131C00000901ACC7E74FF0010901AC6325C2E736
:10132C004FF0FF34D8E7002332464146022000F04C
:10133C0069FFE5E7CF5A030028740300D95A03006C
:10134C00695C0300DF5A0300305C03001FB500200A
:10135C00694600F0A5FB40B9084B094A094902202F
:10136C0000F0D3FE05B05DF804FB694641F2336032
:10137C001EF08CFE044A05490346F0E73C5A030074
:10138C00475A03004B5A030083580300C75A030003
:10139C0010B500210120FFF7A5FE044A04490346BD
:1013AC00BDE81040022000F0B0BE00BF955903000C
:1013BC00C75A030010B500210220FFF793FE044A20
:1013CC0004490346BDE81040022000F09EBE00BF59
:1013DC0099590300C75A030010B500210320FFF7E9
:1013EC0081FE044A04490346BDE81040022000F087
:1013FC008CBE00BFA3590300C75A030010B50021CF
:10140C000420FFF76FFE044A04490346BDE8104070
:10141C00022000F07ABE00BF8B590300C75A0300AC
:10142C00012110B50846FFF75DFE044A0449034646
:10143C00BDE81040022000F068BE00BF95590300C3
:10144C00C75A030010B501210220FFF74BFE044AD6
:10145C0004490346BDE81040022000F056BE00BF10
:10146C0099590300C75A030010B501210320FFF757
:10147C0039FE044A04490346BDE81040022000F03E
:10148C0044BE00BFA3590300C75A030010B5012185
:10149C000420FFF727FE044A04490346BDE8104028
:1014AC00022000F032BE00BF8B590300C75A030064
:1014BC0008B5002000F0E4F9014B186008BD00BF2E
:1014CC00A44E002008B5002000F0DAF9014B18609A
:1014DC0008BD00BFAC4E002070B5012000F0D0F963
:1014EC000128124C03D94FF6FF73236070BD002006
:1014FC0000F0C6F97F28F6D8022000F0C1F9B0F14F
:10150C00805FF0D2012000F0BBF90546002000F00E
:10151C00B7F90646022000F0B3F90246281CF1B2D6
:10152C0018BF012025F07EFF2060DFE7A84E0020C9
:10153C002DE9F04F074685B008460D469046994672
:10154C0033F00AFDBDF838A00F9E204C834663682B
:10155C0053B9CDE9013300931A468421304625F066
:10156C003DFF05B0BDE8F08F22892078991811F85D
:10157C00011C2F2904BF02F1FF3292B208B1B8420C
:10158C0021D12F291DD1934506D3A95CB9B12F299F
:10159C0014BF0021012100E00021A1B12946184609
:1015AC0033F0E2FC78B9CDE90EA6E4684B4642462E
:1015BC0029463846A44605B0BDE8F04F60470121E6
:1015CC00EBE79345E4E71034C1E700BFE4590300AF
:1015DC00002070470020704770477047F8B50546EB
:1015EC00846802681B49202006F097FD6B68DBB10C
:1015FC00194D1A4E1A4F013C14F8013FC3B1752B0B
:10160C001CD0762B1CD0772B1CD0732B1CD0622BB0
:10161C001CD06E2B1CD01349134A2A2B18BF114611
:10162C00202006F07AFDE7E71049202006F075FD32
:10163C000F492020BDE8F84006F06FBD2946EFE7C2
:10164C003146EDE73946EBE70A49E9E70A49E7E7AE
:10165C000A49E5E73E7403003D5C0300315C03007E
:10166C00485C0300705C03006D5C0300695C030064
:10167C002E5C0300545C03005E5C0300685C03009A
:10168C0013B50446FFF7AAFF01A9204600F020FA83
:10169C0018B1084C019B1B680BB902B010BD214658
:1016AC00202006F03AFD0198FFF798FF019B0C33C0
:1016BC000193EFE71C5B030008B50449202006F0FA
:1016CC002CFD2020BDE8084006F08DBD1F5B0300FB
:1016DC0038B5FFF7F1FF064D002460190C3463197F
:1016EC0053F80C3C03B938BDFFF778FFF5E700BFA2
:1016FC0038570300094B10B553F820200C46202016
:10170C00074906F00AFD44B10649202006F005FD04
:10171C002046BDE81040FFF7B3BF10BDFC5A0300D4
:10172C00E85A0300F45A030000230370A0F8663053
:10173C0080F88630C0F890304FF07F42A0F88C30A3
:10174C000A23C0F8882080F88E307047074B00229F
:10175C004FF07F411A70A3F8662083F88620C3F8F7
:10176C00881083F88C20C3F890207047B484002034
:10177C000148FFF7D9BF00BFB4840020034B93F896
:10178C00860093F88C30C01AC0B27047B484002025
:10179C00034B03EB40000133B0F86600184470476C
:1017AC00B4840020044B03EB400292F8680092F8DA
:1017BC006630C01AC0B27047B4840020044B03EBEF
:1017CC004002B2F86800B2F86630C01A80B27047B6
:1017DC00B4840020054A92F88C30184440B202EBD5
:1017EC0040000132B0F86630D05C7047B484002001
:1017FC002DE9F047204C054694F88C002844C0B2E3
:10180C0043B204EB43030E46B3F86680FFF7CAFFFE
:10181C008146FFF7B3FFA84294F88E7003D8D52108
:10182C00164804F0A1FD4FF0000A55465FFA8AF302
:10183C0099451CD90AEB08022244507816B10BB911
:10184C002D280DD000F0DF02582A03D115B9013B29
:10185C00012B0FD90DF0F4FB874204D905FB0705CA
:10186C000AF1010AE2E7052384F88A3000252846AC
:10187C00BDE8F0871027F3E7B4840020E25C030096
:10188C0010B5164991F88E30FF2B044621D1FFF785
:10189C0089FF64B201EB44040246B4F866004B1CA9
:1018AC00012A00EB030101D1C05C10BD022A03D157
:1018BC0008460DF0CBFAF8E7042A04D10020BDE865
:1018CC0010400DF0F1BA0648F92104F04DFD00204E
:1018DC00EBE70021BDE81040FFF78ABFB48400207D
:1018EC00E25C030038B51C4991F88E30FF2B04469E
:1018FC0023D1FFF757FF64B201EB440402464B1CA3
:10190C00B4F86600012A00EB0301C45601D120464D
:10191C0005E0022A04D108460DF098FA00B238BD51
:10192C00042A04D10020BDE838400DF0BDBA4FF4B4
:10193C0087710A4804F018FDE9E7FFF74BFFA0F1A7
:10194C002D035942054659412046FFF751FF2D2DD5
:10195C0008BF4042E3E700BFB4840020E25C030010
:10196C00F8B5164B93F88E20FF2A04461D4603F15A
:10197C0001060CD121B1C0B2FFF714FF0138087079
:10198C0005EB4404B4F8660001303044F8BD93F81C
:10199C008C002044C0B242B203EB4203E543B3F8DF
:1019AC006670ED0FF41939B1FFF7FCFEF35D401BC7
:1019BC00222B08BF013808706019E7E7B4840020B7
:1019CC00F8B5164B93F88E20FF2A04461D4603F1FA
:1019DC0001060CD121B1C0B2FFF7F0FE023808802D
:1019EC0005EB4404B4F8660002303044F8BD93F8BB
:1019FC008C002044C0B242B203EB4203E543B3F87F
:101A0C006670ED0FF41939B1FFF7D8FEF35D401B8A
:101A1C00222B08BF013808806019E7E7B484002046
:101A2C002DE9F3410D460DF10701904607461C4682
:101A3C00FFF796FF0646F8B2FFF7CCFEA0F12203A3
:101A4C005F429DF807105F413944C9B2414528BF38
:101A5C0041468DF807101CB1CCB2A8EB0404E4B2DB
:101A6C0022462846002104F04FFF28199DF8072034
:101A7C00314604F0BFFE9DF80700C01BC0B202B097
:101A8C00BDE8F08113B501230C4608226946FFF727
:101A9C00C7FF0822694620460DF027FA02B010BD98
:101AAC0010B540B20C460021FFF75AFF2146BDE8A5
:101ABC00104013F006BA38B540B20C46154600215A
:101ACC00FFF74EFF2A462146BDE8384013F00CBA0A
:101ADC0008B5D0E9012312B90B60012008BD1B78B1
:101AEC006E2B04D14FF4D271024804F03DFC00205F
:101AFC00F4E700BFE25C03002DE9F04FA24C97B075
:101B0C00814688460026B9F1000F0DD10DF1130165
:101B1C005FFA88F006F060FB90B1262800F0B281E5
:101B2C00012384F88A3051E0B8F1000F00F0AA814B
:101B3C0019F8013B8DF8133008F1FF381FFA88F8BB
:101B4C0094F88D309DF8135084F88D500D2B01D1E5
:101B5C000A2DD8D00D2D0CD0A5F10A035F425F41A0
:101B6C0023783E46042BCED8DFE803F0051A244236
:101B7C0032000127F4E7002F5BD1202D00F06581A6
:101B8C00222D08D102232370B4F88820642A40F057
:101B9C005E810623C5E77B2D0CBF03230123F2E7EF
:101BAC000FB9202DF0D194F886300F2B40F03E81E8
:101BBC000323B6E7222D03D100238DF81330E3E77E
:101BCC00002FE1D0052384F88A30012604232370EA
:101BDC00002E98D094F88A0018B1D4F89010FFF722
:101BEC0089FDFFF7B3FD9DF8133084F88D308AE73B
:101BFC007D2D94F88BA004D1BAF1FF0FD3D005231F
:101C0C008FE728460DF01CFA0F280FD8BAF1FF0FFA
:101C1C0009D094F88B3000EB0310FF238DF81300E0
:101C2C0084F88B30B0E784F88B006CE7202DE6D17C
:101C3C0069E7564B059394F88630002BC5D00027E6
:101C4C0078B2059DFFF7A4FD82463846FFF7AAFD42
:101C5C000022029016469346296861B9E2B10591BB
:101C6C00022384F88A3094F88A30002BADD1059B7E
:101C7C005B689847A9E70B7843B34B1E0193D44696
:101C8C00019911F8013F01910299ACEB0A008842CD
:101C9C003ED1002B3DD1AB46CDF814B0BBF1000FBB
:101CAC00DED094F88C30C4F890B00137013305A91C
:101CBC005846FFB284F88C30FFF70AFF002844D056
:101CCC0094F88630BB42BBD80323CAE70F2EAB680F
:101CDC0008D94FF480712E480392019304F044FB11
:101CEC00039A019B16A901EB86010C35013641F8CC
:101CFC00405CF6B21D462B68002BADD1002EABD04C
:101D0C00013EF6B216AB03EB860353F8405CA3E737
:101D1C002BB9BBF1000F16D001220C35EBE71CF8E8
:101D2C00010BA0F1410EBEF1190F98BF2030A3F1A9
:101D3C00410E98BFC0B2BEF1190F9CBF2033DBB26D
:101D4C0083429DD0E9E7AB46E7E7059B9B681B7890
:101D5C003F2B88D0064605464FF0070A4FF0040B80
:101D6C0040E0104602930192FFF734FD029B019A6A
:101D7C00732B0FD8712B11D2002B55D0622B4BD05B
:101D8C0084F88AA020E000BFB484002038570300F8
:101D9C00655D0300A3F175010229F1D8752B34D0D0
:101DAC00762B34D0732B35D0722B47F6FF7318BFBC
:101DBC004FF0FF33012110460193FFF719FD019BF2
:101DCC00984201D984F88AB0059B9B682B44013654
:101DDC005B782A2B94F88A301CBF0135EDB2002BAE
:101DEC007FF4F3AE059B94F886C09968F2B2B818EC
:101DFC00C0B284454B5DB4D8002B3FF434AF0D44D6
:101E0C006B782A2B7FF460AF2DE7FF23D2E74FF6D8
:101E1C00FF73CFE77F23CDE72228D5D07B28D3D003
:101E2C00052384F88A30CFE70323FAE70133DBB2CA
:101E3C0084F8863004EB4303B4F88820A3F86620BA
:101E4C0000232370002F7FF4F4AE3E465BE621782E
:101E5C00012909D19DF81330A3F1410019289CBF29
:101E6C002033DBB28DF81330A0189DF8133043707B
:101E7C0001320229A4F888207FF445AE002B3FF4F0
:101E8C0092AE40E6304617B0BDE8F08F012270B537
:101E9C001146042002F08CFF1A4B1B4D1A681B488C
:101EAC0042F001021A60DA684FF0604442F080722E
:101EBC00DA60174BC4F8B03F00260223C4F8006E5A
:101ECC00C4F8806EC5F8F03002F07EFE00F5D52027
:101EDC00104B114A00F2FC40B0FBF3F00F4B0138F1
:101EEC002861C4F8406E1A600D4BC4F8803E4FF464
:101EFC008073C5F80433D4F8003E43F48073C4F8FF
:101F0C00003E70BDF0ED00E0000004E006000E00A5
:101F1C0055CEACC5F8590D00FF030040001000E091
:101F2C000D00010010B50121114802F06BFD114BA1
:101F3C0001241C60002003F075FD234604220221BD
:101F4C00052003F0C7FD20460CF008FFFFF79EFFAD
:101F5C000CF036FF084B1C7006F014FF2346402291
:101F6C000649074806F0E4FE064B1860C00F10BD8A
:101F7C0000350A0010881442B3550020B4550020D7
:101F8C00E35D0300B04E0020024B1868003018BF10
:101F9C0001207047F0ED00E0054A4170D123037039
:101FAC001378C370090A8170591C11700420704792
:101FBC00F45500202DE9F74F0E78042E83460F467A
:101FCC0061D907F0C6F8DFF8C480751DEDB2824602
:101FDC004FF6FF710024C146D8F800305BB1A54222
:101FEC0009D9019107F0B5F8A0EB0A0080B2B0F561
:101FFC00FA7F019907D9281B18BF012004233B70D5
:10200C0003B0BDE8F08FB4B3012C37D0EA1E631CCB
:10201C009442DBB21CD1CCB24FF06042D2F8800EAD
:10202C00C00713D51046D9F80CC04CF0807CC9F809
:10203C000CC0D0F800CE4CF4807CC0F800CED0F8A8
:10204C0020C0BCF1000FEED082F820401C46C3E744
:10205C00AA1E944202D1C1F30724DDE76A1E944202
:10206C000FD05C44019314F8024C204604F086FA1D
:10207C00019B0146D0E75B240123CDE734460223C4
:10208C00CAE75D24C8E70020B8E700BFF0ED00E028
:10209C0000B5084B91B040226946186806F036FE30
:1020AC0020B1C2B2694612200CF09CFE11B05DF852
:1020BC0004FB00BFB04E0020094B18804FF6FF7395
:1020CC00984208D0030A08D1064B1B78034214BF70
:1020DC00012000207047012070470020704700BF8E
:1020EC00F6550020B44E00200EB403B503AA52F8E6
:1020FC00041B0192FFF7E0FF10B1202006F035F829
:10210C0002B05DF804EB03B070470EB403B503AA3C
:10211C0052F8041B0192FFF7CFFF28B1202006F0E4
:10212C0024F8202006F008F802B05DF804EB03B0A8
:10213C007047000000B58BB02822694612F0AEFE45
:10214C0028B1044B044918886A46FFF7CDFF0BB041
:10215C005DF804FBF65500202974030000B58DB022
:10216C002C2301AA12F0A4FE28B1044B04491888B0
:10217C0001AAFFF7B9FF0DB05DF804FBF65500207E
:10218C002974030008B5FFF797FF20B12020BDE8A4
:10219C00084006F028B808BD2DE9F84F07468846D8
:1021AC00164699469DF828A0FFF786FF28B1002413
:1021BC0002F1FF3BB442A5B201D1BDE8F88FBAF1F0
:1021CC00000F10D0ABEB040318F803204946384637
:1021DC0005F00F05FFF788FF062D02D13846FFF7F3
:1021EC00D1FF0134E6E72346EEE7000007B50023F4
:1021FC000093034BFFF7D0FF03B05DF804FB00BF67
:10220C00F75D030037B500240094054D054C002BF9
:10221C0014BF2B462346FFF7BFFF03B030BD00BFF2
:10222C00F35D0300A25A030037B5084C0849054674
:10223C002088FFF759FF012300932088054B0822C3
:10224C002946FFF7A9FF03B030BD00BFF6550020AB
:10225C003A720300A25A030037B5084C08490546E8
:10226C002088FFF741FF012300932088054B0822AB
:10227C002946FFF791FF03B030BD00BFF655002093
:10228C003A720300A25A030038B504460D46AAB1AF
:10229C0001200B49FFF728FF0120FFF70DFF18B1B4
:1022AC0029462046FFF75AFF06490120FFF72DFF6C
:1022BC0029462046BDE8384027F05ABC38BD00BF3F
:1022CC00FF5D0300E373030070B50D46164604462C
:1022DC0090B101200949FFF707FF0120FFF7ECFE41
:1022EC0018B131462846FFF739FF22460449012030
:1022FC00BDE87040FFF709BF70BD00BFFA5D030079
:10230C001B5E03002DE9F04F4D4CA36BD4F850B07D
:10231C00D4F840A05A074FBF0027D4F84CB0D4F8DB
:10232C005480D4F83CA05ABF464FDFF84091DFF8F8
:10233C004091454A48BFB84613F0080F434B18BFAD
:10234C001A46B7EB08061CBF7308642187B01FBF81
:10235C0001FB0B33B3FBF6F39BB205933C49CDF871
:10236C0000804B46CDE9017A08BF0596054605F07D
:10237C00E9FEB3B2CDE900931FFA8BF2059B354908
:10238C00284605F0DFFEA36B5B070AD49C3E5E4536
:10239C0007D1626D304B9A4203D23049284605F082
:1023AC00D1FEBA4501D8C24504D24A462C4928462A
:1023BC0005F0C8FE284605F016FF236E0BB9636EB8
:1023CC00BBB32849DFF8AC80DFF8AC90284605F0A9
:1023DC00A4FE00260127226E07FA06F3134207D04B
:1023EC0058F8262013781BB14946284605F095FE6F
:1023FC000136202EEFD1DFF87C80DFF87C900026B0
:10240C000127626E07FA06F3134209D008EB860324
:10241C00D3F8802013781BB14946284605F07DFE81
:10242C0001360E2EEDD1284607B0BDE8F04F05F071
:10243C0083BE0D49284607B0BDE8F04F05F082BEBB
:10244C0000000020184E0020226103007885030054
:10245C002A610300586103009C0000209161030075
:10246C00BD610300DB6103000A6203001D61030010
:10247C0015610300206203003D7403002DE9F8434D
:10248C00044604F0DFF840F60123984239D010D806
:10249C0040F2025398421DD040F20173984224D06E
:1024AC0040F20153984213D16549204605F04AFE8B
:1024BC0022E040F6032398426CD03DD340F604232F
:1024CC00984200F09C8040F60523984200F0B580BD
:1024DC00BDE8F8835B49204605F034FE5A4B5B4956
:1024EC005A6C204605F02EFE06E0574A5849D2E9B0
:1024FC002523204605F026FE2046BDE8F84305F0CE
:10250C0072BE514D5349204605F01CFE95F86C30B7
:10251C009F0703D55049204605F014FE95F86F30FF
:10252C005E0603D54D49204605F00CFE95F96F303B
:10253C00002BE1DA4A49B8E7434D4A49204605F0F9
:10254C0001FE95F86830980704D06A6C3F49204624
:10255C0005F0F8FD95F96830002B04DA6A6F4249F2
:10256C00204605F0EFFDDFF80C81DFF8189100260E
:10257C000127AA6E07FA06F3134207D058F8262053
:10258C0013781BB14946204605F0DCFD0136082EB8
:10259C00EFD1B1E72C4D3549204605F0D3FD2B4941
:1025AC006A6C204605F0CEFD95F86930590703D5C5
:1025BC002F49204605F0C6FD95F96930002B04DA49
:1025CC006A6F2949204605F0BDFD2A4FDFF8B4801B
:1025DC000826AB6EF340DA0707D557F82620137898
:1025EC001BB14146204605F0ADFD0136102EF0D151
:1025FC0095F86830002B7FF47FAF1F4955E7124DDB
:10260C001E491C4FDFF87C80204605F09BFD6A6C50
:10261C000E49204605F096FD1026AB6EF340DB0705
:10262C0007D557F8262013781BB14146204605F0F4
:10263C0089FD01361A2EF0D15EE711494BE700BF38
:10264C00A45E0300E15E030000000020115F0300A4
:10265C002A5F0300445F03005C5F0300965F030086
:10266C00C95F0300056003002A6003004E6003008D
:10267C0065600300305E0300AB600300DB600300A9
:10268C00F4600300466003002DE9F84F164C174F19
:10269C00DFF86080DFF860A00646002523785FFA3B
:1026AC0085FB0BB9BDE8F88F57F8043B104922465F
:1026BC00304605F032FD227804F1010982B96278C6
:1026CC0082B10BF0030103290CBF41465146304641
:1026DC0005F023FD304605F086FD01354C46DDE75F
:1026EC004C46E8E74146F2E7D862030004000020BC
:1026FC009B5E03002E5C0300985E03002DE9F04FF7
:10270C009B46584B85B01B78109F9DF844A0DDF874
:10271C005080064689461546002B00F09280072A09
:10272C0000F291800E9B002B00F08D800F9B002BF4
:10273C0000F08980129BB3F5006F00F384800128B0
:10274C0001D1002F7FD0484B03EB05131B7B002BD3
:10275C007BD0464C10220021684632F0D5FB04EBAE
:10276C0045141022B9F1000F5CD14946204632F0D5
:10277C00CBFBA37843F01003A370E37843F0300352
:10278C00E370BAF1000F03D1DBB243F00303E37043
:10279C003649129BCDF800B06A01013B885A01EB17
:1027AC00020C63F30E1088520E9BCCF808300F9B72
:1027BC00CCF804309DF84C109CF80330012E61F3DA
:1027CC0083038CF8033042D11323CCF80C309CE8F3
:1027DC000F000CF1100E8EE80F00DCF81C20CCF86A
:1027EC0014706FF0030161F39F02B9F1010FCCF883
:1027FC001C2004D10F9BCCF81830CCF804701A496B
:10280C002A018B1841F802800027159A5A60284635
:10281C009F605E732246694603F0EAF9384605B0BC
:10282C00BDE8F08F0021204632F06EFB1023A37020
:10283C000323E370BAF1000FAAD1DBB243F03003EB
:10284C00A5E70B48EBE70B48E9E70B48E7E7B8F1DE
:10285C00000FD4D19CF8023068F304138CF80230CA
:10286C00CDE700BF78570020F8550020785600209F
:10287C00028000F0018000F0078000F038B5104BAA
:10288C001B780546BBB1C0B102F083FC0D49002397
:10289C0001EB0312147B3CB92B60012313731460FE
:1028AC0002F07DFC204638BD0133082BF0D102F03C
:1028BC0076FC0548F7E70548F5E70548F3E700BF60
:1028CC0078570020F8550020048000F0028000F0BA
:1028DC00018000F038B502F05CFC0B4A0546002381
:1028EC00D1180C7B5CB91033802BF9D103F034F97F
:1028FC00064B28461C7002F052FC204638BD284678
:10290C0002F04DFC0248F9E7F855002078570020FA
:10291C00058000F00D4B1B7810B5044693B10728C9
:10292C0012D802F036FC0A4B03EB04131A7B2AB1C3
:10293C0000241C7302F033FC204610BD02F02FFC67
:10294C000448FAE70448F8E70448F6E7785700200B
:10295C00F8550020068000F0028000F0018000F0A5
:10296C0013B5164B1868019000238DF8043002F053
:10297C0010FC134B1C7824B102F011FC114802B06E
:10298C0010BD01221A7002F00AFC0F4B1C731C774D
:10299C0083F82C4083F83C4083F84C4083F85C402F
:1029AC0083F86C4083F87C4004230DEB03008DF816
:1029BC00073003F0F1F82046E1E700BF3E69030061
:1029CC0078570020038000F0F855002010B588B02F
:1029DC000E9C07940D9C06949DF8304005940B9C1E
:1029EC0004949DF8284003940024CDE9013400920E
:1029FC000B46024621462046FFF780FE08B010BD6C
:102A0C0010B588B00E9C07940D9C06949DF8304030
:102A1C0005940B9C04949DF8284003940024CDE964
:102A2C00013400920B46024601212046FFF766FE58
:102A3C0008B010BD08B50A4B1B785BB107280BD842
:102A4C00084B03EB00131B7B43B1002103F09AF8F6
:102A5C00002008BD0448FCE70448FAE70448F8E7FE
:102A6C0078570020F8550020028000F0018000F01B
:102A7C00078000F008B50A4B1B785BB107280BD810
:102A8C00084B03EB00131B7B43B1012103F07AF8D5
:102A9C00002008BD0448FCE70448FAE70448F8E7BE
:102AAC0078570020F8550020028000F0018000F0DB
:102ABC00078000F008B50A4B1B7853B107280AD8D9
:102ACC00084B03EB00131B7B3BB103F0E3F8002036
:102ADC0008BD0548FCE70548FAE70548F8E700BFDC
:102AEC0078570020F8550020028000F0018000F09B
:102AFC00078000F00D4B1B7893B1072812D889B1D1
:102B0C000B4B03EB00131B7B73B10A4B1A6A0123AB
:102B1C0003FA00F010401ABF00200B7008707047C9
:102B2C00054870470548704705487047785700209E
:102B3C00F855002000200E40028000F0018000F0CB
:102B4C00078000F00B4B1B7810B50C4663B10728BF
:102B5C000CD859B1084B03EB00131B7B43B103F0AA
:102B6C00AFF82060002010BD0448FCE70448FAE7E9
:102B7C000448F8E778570020F8550020028000F050
:102B8C00018000F0078000F02DE9F843174E326EFB
:102B9C00F36E12EA030800D5FEE7154CDFF85490EB
:102BAC000127002518EA070F16D02368B7669BB1DA
:102BBC00A16862680131A16028469847637B012BAC
:102BCC000AD148B909EB4513197B1A7F60F341010F
:102BDC0060F3410219731A770135082D4FEA470744
:102BEC0004F11004DED1BDE8F88300BF00200E40D4
:102BFC00F85500207856002070B5094E0446012582
:102C0C0004B970BD94FAA4F0B0FA80F005FA00F3A0
:102C1C0024EA030456F82030002BF1D09847EFE754
:102C2C007C570020054B4FF48022C3F880211A609A
:102C3C004FF48062C3F880211A60704700E100E015
:102C4C0038B504460D4602F0A4FA034B43F8245061
:102C5C00BDE8384002F0A3BA7C570020074BD3F8EC
:102C6C002804D3F81C24104020F42A5020F02A0009
:102C7C004004400CC3F82404FFF7BEBF00A0004082
:102C8C00074BD3F82804D3F81C24104020F4AA4096
:102C9C0020F055000004000CC3F82404FFF7ACBF6F
:102CAC0000A000402DE9F84F284C4FF0000A04F129
:102CBC00A00580464FF000094FF0010B237F84F8EC
:102CCC001DA06BB1D4E90023994508BF904510466F
:102CDC0019460AD2B2EB080063EB0901C4E9000102
:102CEC002834AC42EAD1BDE8F88FE37F33B92377BF
:102CFC00A369002BF4D084F81DB0F1E7D4E9026786
:102D0C00B8EB000069EB010132463B4631F0D8FECE
:102D1C00B01A67EB030123696269002BC4E9000157
:102D2C000BDD13441D2B6361E2D9461C41F10007F6
:102D3C001E3BC4E900676361DAE7D31A1D2B63619C
:102D4C00D6D910F1FF3641F1FF37F1E7D05700200B
:102D5C0038B5074C0025637F1BB1A369216A28464F
:102D6C0098470135042D04F12804F4D138BD00BF77
:102D7C00D0570020064B5A6A99690A40D20705D5EC
:102D8C0001221A62034A136801331360704700BFB3
:102D9C000020044070580020F0B5194E00214FF06F
:102DAC00FF324FF0FF337418257F3DB1D4E9004555
:102DBC009D4208BF94423CBF22462B462831A02995
:102DCC00F1D1104900240C705C1C08BFB2F1FF3F1C
:102DDC000C4614D000279F420B496FF0640608BFC5
:102DEC009642086038BF32460849042502440D62F9
:102DFC0001234A6523704B6A43F004034B62F0BD18
:102E0C00D0570020C4570020C05700200020044099
:102E1C000F4B1B7870B50546BBB102F0BAF90D49E2
:102E2C000023282606FB0312947F14B935B90A4CEB
:102E3C0007E00133042BF5D1084C02E00121917716
:102E4C002B6002F0ACF9204670BD054CFBE700BFCF
:102E5C00C5570020D0570020041000F0011000F0DE
:102E6C00061000F070B5204D2C78002C3AD10121C1
:102E7C001E481F4E01F0C6FD03211E4802F03CF80F
:102E8C0001211D48347101F0BDFD304602F0E0FF18
:102E9C001A49012002F0C2FF194B1A485A6A22F44F
:102EAC00FF6222F007025A6240F2FF721A62164A5F
:102EBC009C604FF00041C2F8801111605A6A42F0D8
:102ECC0001025A622146A02232F01EF80F4B1C70F0
:102EDC000F4B1C700F4B1C600F4B1C600F4B1C607E
:102EEC0001232B70002070BDC557002000250A005F
:102EFC00B54E002005002400A0091400BE4E002091
:102F0C0000200440D057002000E100E0BC57002016
:102F1C00C4570020C8570020705800207458002057
:102F2C002DE9F74F93465C4A1278074689461E46B0
:102F3C00002A00F0AD80032800F2AC8002F029F9E1
:102F4C00564A282404FB07248046A17F924629B9BF
:102F5C0002F025F9524803B0BDE8F08FBBF1000F29
:102F6C0008D116B10C993846B047404602F017F913
:102F7C000020F0E74B4A4FF4004C4FF4FA7000215C
:102F8C009568A6614FF47A720023ECFB0B0131F0CB
:102F9C0097FDB9F1010F02460B46C4E9022309D192
:102FAC004FF47A7303FB0BFB1E2303FB10B323615B
:102FBC000F236361282303FB07A301304FF00102A9
:102FCC0041F10001C3E900011A770C9A83F81F90B4
:102FDC001A62354B1B78002BC7D1344C2368013354
:102FEC001EBF236801332360314B01931A78E2B979
:102FFC00304B2C4E1D600423336200236FF06402AF
:10300C008B4208BF824238BF104628447065736AF1
:10301C00019A43F004037362012313702368002B9D
:10302C00A3D02368013B23609FE72368012BF5D1D4
:10303C00282303FB07A30026DFF86890DFF874B0A1
:10304C001E77D9F8242022F00402C9F82420DBF8DA
:10305C000000281AFFF726FEFFF77AFE26B9282271
:10306C0002FB07A2012010772846FFF795FE114BB3
:10307C00D9F808501868D9F85420019BA5EB000C1E
:10308C00121A187801360028C8D09445D9D2C5E751
:10309C00094860E709485EE7C5570020D057002073
:1030AC00031000F000200440BC570020C85700203B
:1030BC00C4570020C0570020061000F0021000F08A
:1030CC002DE9F843264B1B7805460C46002B41D0C6
:1030DC00032841D8002941D002F05BF8214B28226B
:1030EC0002FB05339A7F22B902F059F81E48BDE85D
:1030FC00F8831A7F1AB902F052F81C48F7E7D3E9A3
:10310C0000671B4B9D681B4BD3F8008002F047F8FF
:10311C000021A5EB08008F4208BF864215D3361A52
:10312C0067EB0107B046B9464FF47A75A8FB052347
:10313C0012F5804005FB09334FEAD03243F1000110
:10314C0042EA414222600020D1E74FF000084FF0E4
:10315C000009E9E70848CAE70848C8E70848C6E78D
:10316C00C5570020D0570020031000F0051000F0C8
:10317C0000200440C0570020061000F0021000F0A0
:10318C00041000F0F8B502F004F8084D084F2C6854
:10319C00BE68FFF7EFFD2B689C42F8D101F0FFFFF2
:1031AC000022901944F10001F8BD00BF70580020B6
:1031BC00002004402DE910484FF47A74A0FB04BCA5
:1031CC001BF5804204FB01CC4CF10003D00B40EA10
:1031DC004340BDE8108800002DE9F8431A4C01F07B
:1031EC00D8FF626AA1690A4022F00501530705461F
:1031FC00216221D5154AA768154EDFF85890012198
:10320C0011709046636A23F0040363623068381AC5
:10321C00FFF748FDFFF79CFD3846FFF7BDFD326810
:10322C00A768636DB91A9B1A99F800200AB19942E4
:10323C00E8D2002388F80030FFF79CFD2846BDE853
:10324C00F84301F0ACBF00BF00200440BC57002085
:10325C00C0570020C4570020044B4FF04042DA62A4
:10326C001A6B22F040421A63704700BF00300E40C8
:10327C002C48F0B5002203682B4D114654592CB143
:10328C001E68AC18002E36D1234601210832282A9C
:10329C00F4D101B103602549254E0B680022144678
:1032AC0095592DB11F68B518002F2BD12B46012431
:1032BC000832282AF4D104B10B6000681D4B026857
:1032CC0042B3DA69007922F0FF020243DA611A6B29
:1032DC0042F0804209681A630A68164BF2B1DA6947
:1032EC00097922F47F4242EA0122DA611A6B42F038
:1032FC0000421A63F0BD1E792779B74284BF23467A
:10330C000121C3E71F7995F804C0BC453CBF2B468F
:10331C000124CDE71A6B22F08042DBE71A6B22F016
:10332C000042E6E78458002094580020885800207A
:10333C00BC58002000300E4008B51B4B1B48012226
:10334C001A700021282231F0DFFD282200211848B4
:10335C0031F0DAFD174A184B13601849184A1360FC
:10336C000A684B6DC2F30742FF2A02D0DBB2FF2B77
:10337C0001D190231922134802EB820103EBD101F6
:10338C000160DB000521B3FBF1F313440E4A13601B
:10339C00FFF762FF0D4B0122C3F880211A60FFF783
:1033AC0067FF002008BD00BF78580020945800200B
:1033BC00BC580020845800208C580020B081E00FAD
:1033CC00885800207C5800208058002000E100E044
:1033DC00064B186AC0B20523C000B0FBF3F0044BD7
:1033EC001B68181A00F3070040B2704700300E40FB
:1033FC008058002010B5144C226B616A0A4010D51D
:10340C00124B1B681A682AB1002119605960FFF72A
:10341C00DFFF90474FF00043E362BDE81040FFF739
:10342C0027BF5300F9D50A4B1B681A6832B100212B
:10343C0019605960FFF7CCFF01219047024B4FF008
:10344C008042DA62E9E700BF00300E408858002065
:10345C0084580020FFF7CEBF38B141B1013AB2F524
:10346C00006F044838BF002070470348704701487C
:10347C00704700BF037000F0027000F00D490E4A57
:10348C000B7810B54BB9C2E90033C2E90233012401
:10349C000C7042F82300002010BD002352F82310BA
:1034AC000029F6D08142F4D00133042BF6D1034825
:1034BC00F2E700BFF4580020E4580020027000F03E
:1034CC0038B504460D4601F064FEA28892B222B9CA
:1034DC002A6001F064FE064838BD6388142202FBA2
:1034EC00034308332B6001F05AFE0020F4E700BFC1
:1034FC000B7000F038B504460D4601F04AFEA38867
:10350C009BB223B92B6001F04AFE0C4838BD63888E
:10351C00E188142202FB034308332B6063885A1C96
:10352C0092FBF1F301FB13239BB26380A388013B55
:10353C009BB2A38001F033FE0020E7E70B7000F094
:10354C007FB5012380F82C3090F8323093B90C4AB7
:10355C00036803920022049002924A6801920122AD
:10356C0000920A68016980681C33FFF749FA07B0BA
:10357C005DF804FB012BEAD0002380F82C30F6E731
:10358C00DD3D00007FB5012380F82D3090F83230FE
:10359C0083B9026834320D4B0393002304900293D9
:1035AC004B680193012300930B68C1684068FFF7D7
:1035BC000DFA07E0012B02D102682832EBE7002359
:1035CC0080F82D3007B05DF804FB00BFDD3500003E
:1035DC00F7B5906A01A91446FFF772FF144B984295
:1035EC0020D0019B00251D619D6001F0D2FD019A48
:1035FC00D668074626B1D2E9002329462046B047B3
:10360C0001A9A06AFFF776FFA06A83889BB263B119
:10361C0001A9FFF755FF01992046FFF7B3FF384684
:10362C0001F0BDFD012003B0F0BD84F82D30F6E7AC
:10363C000B7000F0427E30235343044A1A44437FFC
:10364C0003EBC2039B001868C0B270471CA0104269
:10365C0013B51D4A002352F82340617F81420ED0DE
:10366C000133042BF7D102B010BD0028FBD19DF81B
:10367C000730002BF7D06068FFF7DCF9F3E794F81C
:10368C003130022BEFD12046FFF7D4FF637D20753C
:10369C00022BE8D194F82E3003F0FF02002BE2D17C
:1036AC0002A9606801F8012DFFF724FA237D1BB1F4
:1036BC0094F82F30002BD8D0002384F82F3060687A
:1036CC00FFF7D8F9CFE700BFE458002090F832306C
:1036DC0053B903680122DA601A69D007FCD55A6F16
:1036EC0042F001025A677047012B0CD103685A6CE7
:1036FC009107FCD401225A609A68D207FCD55A6D06
:10370C0042F001025A65704790F832303BB90368B9
:10371C005A6F22F001025A670222DA607047012BBD
:10372C0009D103685A6C9207FCD45A6D22F001023D
:10373C005A6502225A60704710B50446FFF710F91B
:10374C000021201DFFF79AF8014608B1044810BD6E
:10375C0004F10800FFF792F80028F8D0F6E700BF54
:10376C000E7000F0F8B5044617460D4601F011FD39
:10377C00A388E2889A42064605D800233B6001F0F4
:10378C000EFD1648F8BD2388142202FB03430833B0
:10379C0005F1100C2A4603CA62451860596015469B
:1037AC0003F10803F6D1106818602388E18814220D
:1037BC0002FB034308333B6023885A1C92FBF1F352
:1037CC0001FB13239BB22380A38801339BB23046A9
:1037DC00A38001F0E4FC0020D4E700BF0A7000F0E5
:1037EC0073B504460D46C07DE67E002934D0012316
:1037FC000422314602F06EF901230222217F207E41
:10380C0002F068F994F83130022B16D10023012212
:10381C00617F607E02F05EF900230422A07EA17F0E
:10382C0002F058F90123627F607E019300931146E8
:10383C0002F004F9002002B070BD032BFAD1002372
:10384C000122617F607E02F045F900230422A17FF2
:10385C00A07E02F03FF9EDE70B460A46314602F036
:10386C0039F92B462A46217F207E02F033F994F851
:10387C003130022B10D12B462A46617F607E02F03C
:10388C0029F92B462A46A07EA17F02F023F9627FFC
:10389C00607E01950123C9E7032BCBD12B462A4629
:1038AC00617F607E02F016F92B462A46CFE790F82E
:1038BC00323013B9036818697047012B1CD10368A7
:1038CC009B6803F00200DA0748BF40F0010059077B
:1038DC0048BF40F008001A0748BF40F02000D90646
:1038EC0048BF40F040009A0648BF40F080005B069D
:1038FC0003D540F400507047002070472DE9F34188
:10390C000D460446002879D001F043FC012D0646F3
:10391C003BD1A36A9B889BB2002B3DD06068FFF71C
:10392C00C9F80023A06A84F82D3083889BB273B148
:10393C0001A9FFF7C5FD01996068364F0831FFF703
:10394C0001F9019B1F61A06A83889BB253BB20467F
:10395C00FFF7ADFF8304FAD5023D012D10D8A06806
:10396C00FFF7A8F80023606A84F82C3083889BB298
:10397C003BBB94F83130032B02D02046FFF7C4FE3A
:10398C00304601F00CFC002009E0022D38D1636AAE
:10399C009B889BB2002BDFD101F001FC1E4802B0CA
:1039AC00BDE8F08101A9FFF7A5FD019BD3F80C80C0
:1039BC00B8F1000FC7D09B68002239462046C0479B
:1039CC00C1E76946FFF77CFD0099A068114F0831EB
:1039DC00FFF7B8F8009B1F61606A83889BB2002BCD
:1039EC00C7D06946FFF786FD009BDD68002DF3D03C
:1039FC009B68002239462046A847EDE70748CEE7EA
:103A0C00032DA9D1A36A9B889BB2002B86D1636A34
:103A1C0080E700BF097000F0087000F0027000F041
:103A2C00436A9888C0B270472DE9F3410546406A55
:103A3C0084889846A4B200230E461746CDE900337D
:103A4C003CB16946FFF73CFD01A90446A868FFF7A5
:103A5C0079F8009971B16CB94868019BC01A38604B
:103A6C00C8F800300B6833602846FFF720FF02B01F
:103A7C00BDE8F0810021C8F8001039603160F3E72F
:103A8C00836A9888C0B270472DE9F3410546806A75
:103A9C0084889846A4B200230E461746CDE900331D
:103AAC003CB16946FFF70CFD01A904466868FFF7B5
:103ABC0049F8009971B16CB94868019BC01A38601B
:103ACC00C8F800300B6833602846FFF7F0FE02B0F0
:103ADC00BDE8F0810021C8F8001039603160F3E7CF
:103AEC00007D70472DE9F04104460E461746FFF75E
:103AFC00B3FC804650BB092001F062FB0546A26A6C
:103B0C0093889BB213B194F82E3013B394F83220EF
:103B1C0022BB23681D6915F0020533D0012384F8FC
:103B2C003030002A3FD13744BE42206836D1036979
:103B3C009E06FCD555B994F83230002B42D123683F
:103B4C005A6F22F002025A670822DA604046BDE83A
:103B5C00F081002DD4D0FFF717F8D0E7012A1BD144
:103B6C0023689D6815F00205D8D1596C8807FCD4E0
:103B7C000421596099688907FCD5596D41F00201FF
:103B8C005965CBE70421D96019698907FCD5596FB0
:103B9C0041F002015967C1E70025BFE716F8011B88
:103BAC0002F0CEFAC0E7012AD0D13744B7422068E0
:103BBC0003D183681907FCD5BCE716F8011B02F08A
:103BCC00C4F8F3E7012BC1D123685A6C9207FCD4DB
:103BDC005A6D22F002025A6508225A60B6E70000BC
:103BEC0010B50446B0B190F82E3033B990F831309E
:103BFC00022B0AD06068FEF71DFF94F82E300133BB
:103C0C00DBB284F82E30002010BDFFF713FD002826
:103C1C00F3D1EFE70048F7E7027000F010B5044667
:103C2C00D0B190F82E30CBB190F82E30012B06D1BC
:103C3C0090F83130022B0AD06068FEF71BFF94F825
:103C4C002E30013BDBB284F82E30002010BDFFF784
:103C5C00F1FC0028F3D1EFE70148F7E70148F5E75D
:103C6C00027000F0057000F037B590F83150022D5D
:103C7C00044618D1A37F407D01229A40A37E3021B7
:103C8C005943134B0B4410B903F1806303E0012833
:103C9C0005D103F1C0631A60002003B030BD217D53
:103CAC000029F6D1F0E7012DF6D1037D73B911236C
:103CBC008DF80730FFF794FF2A460DF107012046D7
:103CCC00FFF710FF2046FFF7A9FFE5E71323EFE707
:103CDC000CA0004090F83130032B05D0022941751F
:103CEC0018BF0175FFF7C0BF00487047057000F0A2
:103CFC0010B5044600283AD00321FFF7FFFD002140
:103D0C002046FFF7E7FF00212046FFF769FD94F8F6
:103D1C00323003BB23680A22DA600021206A00F0EB
:103D2C0071FE94F83130032B03D00021607FFEF735
:103D3C0087FF6068FEF7EEFDA068FEF7EBFDFEF76F
:103D4C00C9FD636A0020188058809880A36A188087
:103D5C005880988010BD012BDFD1206801F0E1FF65
:103D6C0023685A6C9207FCD40A225A60D5E70148A2
:103D7C00F0E700BF027000F0F0B587B004461646BD
:103D8C00FFF76AFB0546F0B9CDE9011604936A46C4
:103D9C000E4B606A039601A90593FFF7E3FC0546F9
:103DAC0088B994F82C3073B92046FFF78FFC009932
:103DBC002046FFF7C5FB94F83130032B03D0257553
:103DCC002046FFF751FF284607B0F0BD017000F008
:103DDC0073B5506A01A91446FFF772FB334B984236
:103DEC002FD094F83200019B002836D12268116C38
:103DFC0011F4007128D02E49196198604FF40073AA
:103E0C00936401F0C6F90199CD68064635B14A684C
:103E1C008B682046D31A0A680969A84701A9606A09
:103E2C00FFF768FB606A8588ADB2002D2FD001A921
:103E3C00FFF746FB01992046FFF782FB304601F065
:103E4C00AEF9012002B070BD106CC5051BD5194828
:103E5C00186199604FF48073D2E7012813D122685E
:103E6C00D16A11F0800106D01149196100219960C5
:103E7C0080235363C5E7D06A400604D50D4818610A
:103E8C0099604023F5E700221A619A60B9E7012393
:103E9C0023752046FFF7E8FE94F8313084F82C5057
:103EAC00032BCBD02046FFF72FFCC7E70B7000F09D
:103EBC000D7000F00C7000F02DE9F041094F044634
:103ECC000D460FCF88B001AE0FC697E8070086E805
:103EDC000700002C00F0A98245B9034E304608B00B
:103EEC00BDE8F08154690300037000F03422002116
:103EFC00204631F009F82046FFF7C0FA06460028A4
:103F0C00ECD12B7C84F83130CB4A2B682360934264
:103F1C0084F8320040F07B81C84B2362C84BE360CD
:103F2C004FF440232361D5E90623002662621680F4
:103F3C005680968084F82C60A3621E805E809E80E2
:103F4C006B6803936B89ADF81430AB89ADF8123004
:103F5C00AB7B8DF810300121EB7BBA4884F82D60D7
:103F6C0084F82F6005278DF816308DF8117000F04D
:103F7C0049FD0121B44800F045FD0121206A00F003
:103F8C0041FD01A928688DF8046002F09BF82868AF
:103F9C006A7A816F2B7ADFF8A0C221F4F85121F0F4
:103FAC001F01114341EA0321816703214167206806
:103FBC00604540F05781BB4216D9981F042840F247
:103FCC006C81A3F10B00B84240F26981A3F111009E
:103FDC00062840F26681A3F11801062940F263819C
:103FEC001F2B14BFFF263E46042AE67540F25D8166
:103FFC00511F042940F25B81A2F10A01052940F20C
:10400C005881A2F11001062940F25581A2F1170145
:10401C00072940F252811F2A14BFFF21002121766B
:10402C00002B58D0012B56D0022B54D0032B52D03E
:10403C00042B50D0052B4ED0062B00F04881072BBB
:10404C0000F04781082B00F04681092B00F04581D8
:10405C000A2B00F044810B2B00F04F810C2B00F04D
:10406C002E810D2B00F02D810E2B00F02C810F2BAF
:10407C0000F02B81102B00F02A81112B00F02381F2
:10408C00122B00F02281132B00F02181142B00F055
:10409C002081152B00F01F81162B00F01E81172B91
:1040AC0000F01D81182B00F01C81192B00F01B81D6
:1040BC001A2B00F01A811B2B00F019811C2B00F01D
:1040CC0018811D2B00F017811E2B00F016811F2B61
:1040DC000CBF0723FF23E376002A00F08881012A16
:1040EC0000F01D81022A00F08481032A00F08381F4
:1040FC00042A00F08281052A00F00781062A00F0CC
:10410C000681072A00F00581082A00F00481092A9B
:10411C0000F003810A2A00F072810B2A00F07181F1
:10412C000C2A00F0EC800D2A00F0EB800E2A00F037
:10413C00EA800F2A00F0E980102A00F0E280112AB0
:10414C0000F0E180122A00F0E080132A00F0DF80FA
:10415C00142A00F0DE80152A00F0DD80162A00F00B
:10416C00DC80172A00F04181182A00F04081192ABE
:10417C0000F0D5801A2A00F03C811B2A00F03B810C
:10418C001C2A00F03A811D2A00F039811E2A00F009
:10419C0038811F2A14BFFF23002323776B7C63769F
:1041AC00AB7C6377EB7CA3762B7DA3770121204638
:1041BC00FFF716FB064600287FF490AE00F0E9FFEF
:1041CC002F7C032F804640F020812B682A8CDA67E5
:1041DC005A6E42F004025A665A6F42F030025A6725
:1041EC0028684FF0FF3383642B7C032B0CBF052115
:1041FC00042101F037FF2B684FF44062DA6020464F
:10420C00FFF79AFA0646404600F0C9FF66E60F4AE9
:10421C00934206D10E4B23620E4BE3604FF45023B6
:10422C0080E60D4A93427FF458AE0C4B23620C4B44
:10423C00E3604FF4602375E6000001400032040097
:10424C0001000C004041050000350A00000401404B
:10425C000042040001000D0000080140005204005F
:10426C0001000E00DFF8D4C160455AD1052B7FF652
:10427C00BBAE981F042810D9A3F10B0005280ED94A
:10428C00A3F1110006280CD9A3F1180106290AD9AB
:10429C001F2B14BFFF260526A6E60126A4E6022640
:1042AC00A2E60E46A0E63E469EE60021B7E60121B8
:1042BC00B5E60221B3E60321B1E60521AFE60723FB
:1042CC0009E7082307E7092305E70A2303E70B237C
:1042DC0001E70C23FFE60D23FDE60E23FBE60F237F
:1042EC00F9E60023F7E60123F5E60223F3E60323C0
:1042FC00F1E60423EFE60523EDE60623EBE60823BF
:10430C004BE7092349E70A2347E70B2345E70C232F
:10431C0043E70D2341E70E233FE70F233DE702233D
:10432C003BE7434988427FF4D8AD002B47D0591E58
:10433C000C2946D9A3F10E0106298CBFFF210521BA
:10434C000C2AE17541D9A2F10D0106293BD9A2F144
:10435C001401092939D91F2A14BFFF210021217604
:10436C00002B3ED0591E0C2931D90E2B31D00F2BDE
:10437C0031D0102B31D0112B31D0122B31D0132B3B
:10438C0031D0142B14BFFF2307230C2AE3763AD920
:10439C000D2A2AD00E2A2AD00F2A2AD0102A2AD047
:1043AC00112A2AD0122A2AD0132A2AD0A2F11403B5
:1043BC00092B28D91F2A14BFFF230523EDE6194624
:1043CC00BEE7FF21BCE70521C9E7FF21C7E7FF23B3
:1043DC00DBE70023D9E70123D7E70323D5E7042341
:1043EC00D3E70523D1E70623CFE70023D5E6012346
:1043FC00D3E60323D1E60423CFE60523CDE606233B
:10440C00CBE60723C9E6FF23C7E6022F7FF4E8AE0D
:10441C00607F0849FEF714FCFEF704FCA6752675B0
:10442C0067752046FFF720FCDAE6034E56E500BF21
:10443C00000801405D360000027000F000040140ED
:10444C0090F83120012A10B5034610D102290ED064
:10445C00827D8A4201D1002010BD997511B9FFF7F8
:10446C00DDFBF8E70129F6D1FFF7BAFBF3E70148CA
:10447C00F2E700BF057000F0F0B587B004461646B1
:10448C00FEF7EAFF054600BBCDE9011604936A4628
:10449C000F4BA06A039601A90593FFF763F9054634
:1044AC0098B994F82D3083B900F073FEA36A9B88F9
:1044BC009BB2064633B100992046FFF763F80123FF
:1044CC0084F83030304600F06AFE284607B0F0BD64
:1044DC00017000F070B588B00D220021294C2A4ED5
:1044EC0004A830F011FD00250223012127488DF886
:1044FC001010CDE9015503958DF80A3000F082FAC1
:10450C00294601AA204601F044FD4FF6FF73E361F2
:10451C008DF81250354604A9204601F0E7FC1C48E2
:10452C0000F052FB9DF81230D8400133DBB20A2B5D
:10453C0030608DF8123002D8164B9842EBD81648E2
:10454C00164C00F041FB1649B1FBF0F12868154AF6
:10455C000025E1FB004500232046294630F0B0FA47
:10456C00114B084A1860114B00201870936923F006
:10457C00100393610E4B4FF40062C3F880211A6054
:10458C0008B070BD00800140F85800200002040003
:10459C004041050080841E007000020020A107002D
:1045AC0000B0710B40420F00FC5800200059002055
:1045BC0000E100E01E4BF7B519681E4C1E4A1F4E59
:1045CC000025E0FB014520462946002330F078FA0F
:1045DC00DFF86CC04FF6E85400254FF6E75E4FF05D
:1045EC00FF378D4208BF844211D380B260B1144AA8
:1045FC00516A89B2536A9BB2ADF80630BDF80630E9
:10460C005B1A9BB29842F5D8002003B0F0BDDCF8E1
:10461C00242092B2DCF824309BB2ADF80430BDF803
:10462C0004309B1A9BB27345F4D980197941D8E7B1
:10463C00F858002020A1070040420F001802FFFF8D
:10464C0000800140044BDA68D20604D510225A616E
:10465C00024B01221A707047008001400059002063
:10466C002D4B002A70B52D4D446B08BF1D462C4BAD
:10467C0014BF1026002698423AD102293FD004D804
:10468C00B9B1012921D000232DE0062931D081298F
:10469C0035D00329F7D1234B1A6819681B68120C03
:1046AC001B0C03F0F00302F4FE421A43C1F3034364
:1046BC0018E01D490B680A6803F4FE4302F00F0270
:1046CC001A430B6803F0F0030CE0174A13681168E7
:1046DC0012681B0C120C02F0F00203F4FE4313439D
:1046EC00C1F303421343B3402C400D4A234353639D
:1046FC0070BD0E4B1A681B6802F00F02E2E7094A04
:10470C0013681168126803F4FE4301F00F010B43A8
:10471C0002F0F002E6E700BF0080FFFFFFFF008021
:10472C00002000401482E00F1082E00F1882E00F8E
:10473C0038B50C4602238360002289780546FFF7C2
:10474C008FFF207961786279030243EA016343EABF
:10475C000243E27843EAC203E2790AB143F0005320
:10476C00227A0AB143F00403A2790AB143F002039E
:10477C00627A0AB143F00103F328A27806D12AB970
:10478C0003299CBF23F0706343F0806351B200296E
:10479C00ACBF43EA421343F0E0032B616B69002981
:1047AC0023F4F21323F00703BCBF22F0800213435F
:1047BC00227843EA4243E27A0AB143F480436B61C4
:1047CC006D0105F18445A37AAB6038BDB0F5FA4FA5
:1047DC0010B50B4C38BF4FF4FA40844228BF044646
:1047EC0019B9084800F0F0F90146631E1944B1FBF1
:1047FC00F4F018B101387F2828BF7F20C0B210BD5B
:10480C000024F40040410500F8B5CC7805460E466E
:10481C0074BB21461E48FFF7D9FF04460A23AB6040
:10482C007178337841EA0361B3781B0403F4FE0317
:10483C0019432402337904F4FE4421430BB141F0B3
:10484C00100105F180632960C0217279196005F1AE
:10485C00C0631A602B681B0618D50E4800F0B4F91B
:10486C000D4B9D4212D10D48BDE8F84000F0ACB99B
:10487C00076817F08007D1D139460548FFF7A6FF26
:10488C0039464FF4FA40FFF7A1FFC7E7F8BD00BF68
:10489C000024F400B80032000020004000B20400F4
:1048AC0008B528B9074800F08FF9002808BF012087
:1048BC0000F57420044B00F23F20B0FBF3F00138FC
:1048CC00C0B208BD4041050040420F000C4B98425D
:1048DC0010D90C4B984210D9022201230A490B60C3
:1048EC000A49D1F8003123F0807343EA0263C1F81E
:1048FC000031704700221346F0E70122FBE700BFAE
:10490C000048E8010090D0034000C84300400E402E
:10491C000E4B30B50E4C5B68C9B2002304EBC302DE
:10492C0015798D4203D154F8335085420BD20133A3
:10493C00052BF3D1032205494B6823F0407343EA5E
:10494C0002634B6030BD5279F5E700BF00000E40AA
:10495C008069030038B5074C41F67133256C23642C
:10496C0001F064FC0021FFF7D3FF0DB10023236499
:10497C0038BD00BF00000E40044BD3F84421D207D1
:10498C0003D4D3F840211042FBD1704700400E40B5
:10499C000C4AD2F89030516A0B4B21F0300141F0A7
:1049AC00100110B55162146BC0F3C31103310F2900
:1049BC0003EA040328BF0F21034343EA0173136383
:1049CC0010BD00BF00400E4000F8FF0F044A1368F2
:1049DC00002BFCD1034B5868C0F30140704700BF5B
:1049EC00C800C64300300E4038B5054C41F6713353
:1049FC00256C2364FFF78CFF0DB10023236438BDB5
:104A0C0000000E40C0F30322013A38B50546092ACE
:104A1C0013D8DFE802F023131212051619121C200A
:104A2C00104C0020C5F3043508B1FFF7A5FF04F1C5
:104A3C00047405EBC404A400216038BD00200A4CAA
:104A4C00F0E70120094CEDE71020094CEAE74FF4A0
:104A5C008030084CE6E70020074CE3E70020074CC9
:104A6C00E0E700BFB0400E40C0400E40E0400E40BA
:104A7C00E8400E40F0400E4050410E4000400E40C9
:104A8C0000F00F000138072848D8DFE800F0040FC9
:104A9C001947232D4735244BD3F8943003F00703E3
:104AAC00023B052B3CD8214AD05C70471E4BD3F8F7
:104ABC00803003F00703013B042B33D81C4AF3E787
:104ACC00194BD3F8843003F00703013B042B29D88E
:104ADC00184AE9E7144BD3F8883003F00703013B7D
:104AEC00042B1FD8144ADFE70F4B1B6F13F0010F79
:104AFC0014BF0920072070470B4BD3F85C3103F02F
:104B0C003003202B06D0302B06D0102B0CBF0720E7
:104B1C000120704704207047082070470020704720
:104B2C00052070470120704700400E40706903005B
:104B3C00766903007B6903007669030008B50146BA
:104B4C00FFF79EFF1C4B994212D01C4B994213D07D
:104B5C001B4B994204D11B4BD3F8800000F007008B
:104B6C000138042825D8DFE800F00B0F17130B00D1
:104B7C00144BD3F88400F1E7124BD3F88800EDE71F
:104B8C00BDE8084001F0B0BBBDE8084001F0B2BB85
:104B9C00BDE8084001F0ABBB01F070FB094BD3F84A
:104BAC000031C3F300635A1C01239340B0FBF3F0B4
:104BBC0008BD0020FCE700BF030020000500240016
:104BCC0002001E0000400E4000F47810B0F5A01F4B
:104BDC0008B56CD021D8B0F5202F07D00AD8B0F585
:104BEC00003F59D0B0F5802F4BD0A8BBBDE8084092
:104BFC0001F020BBB0F5602F00F08380B0F5801F72
:104C0C0000F08780B0F5402F26D101F013FB474B05
:104C1C00D3F81431C3F304233AE0B0F5001F59D094
:104C2C0013D8B0F5D01F57D0B0F5F01F3AD0B0F56F
:104C3C00B01F11D13E48FFF781FF3C4BD3F8202128
:104C4C0002F00F020123934023E0B0F5381F38D057
:104C5C0004D8B0F5101F52D0002008BDB0F5401F8D
:104C6C0043D0B0F5481FF7D13248FFF709FF0728AA
:104C7C004FD0082850D00428EED1BDE8084001F0F0
:104C8C000FBB01F0D7FA294BD3F80C31C3F308232F
:104C9C000133B0FBF3F0E0E701F0CCFA234BD3F88F
:104CAC000831F3E72248BDE80840FFF747BF224828
:104CBC00FFF744FF1D4BD3F8303103F00303D8400A
:104CCC00CBE71B48FFF73AFF184BD3F82031C3F35F
:104CDC000113F4E71948E6E71848FFF72FFF134BC9
:104CEC00D3F82821C2F30112ACE71448FFF726FFD2
:104CFC000E4BD3F82831C3F301231A1DA2E70E483B
:104D0C00D1E70F48FFF7BCFE072802D00928A3D132
:104D1C006CE70C4B1868A0E701F08CFA034BD3F846
:104D2C000031C3F3042303FB000096E700400E4060
:104D3C0002001E00B8003200050024000300200011
:104D4C0006000E00C84E00200E4B5A6A12F0300FAF
:104D5C0004D0202913D0302900D011B94FF44002CF
:104D6C0000E0094AD3F8901032EA0101FAD152025C
:104D7C0046BFD3F8A000C0F38020012070474FF449
:104D8C000002EFE700400E40FFF3E17F02280AD15A
:104D9C0029B1064B4FF48060C3F8A800596612B1D4
:104DAC000220FFF7D1BF0120704700BF00400E402A
:104DBC002DE9F34106460F469046072867D8DFE8F1
:104DCC0000F0048F25208A66660D4FF400754FF4B1
:104DDC00807408230920002F68D05EE001A801F040
:104DEC006BF89DF80530012B06D94FF400454FF4B4
:104DFC0080440E230F20EEE79DF80430022BF4D8EC
:104E0C00FEE70124022500232046E4E700294AD0CE
:104E1C00364A536A13F0300F3CD1354BDB6B536A77
:104E2C00DB0705D5536A23F0300343F010035362BC
:104E3C000424022303202F4D2C4A2B4414669B0080
:104E4C001A68002AFCD0B8F1000F20D00544AD0040
:104E5C002B68002BFCD0022E19D1C7B1234F796AD5
:104E6C0011F001011BD0012220213046FFF78EFFEB
:104E7C00D7F89C60012200210220FFF799FFC6F3AE
:104E8C000A00FFF785FD3C662B68002BFCD002B0B6
:104E9C00BDE8F0810424022303200027CBE7304631
:104EAC00FFF752FFE4E70825022303200F4A0121F4
:104EBC00156601FA03F3D2F890101942FBD1B8F140
:104ECC00000FE4D00123094A03FA00F0D2F8903025
:104EDC000342FBD1DBE720251024042305207AE7CD
:104EEC00802540240623072075E700BF00400E40B4
:104EFC0000300E408004F210112870B506460C46A6
:104F0C0026D1042912D101F0CBF90546A8B1002114
:104F1C00284600F051FB06F00F06013E072E74D810
:104F2C00DFE806F025186F736D94739F052904D183
:104F3C00674B1D68674B9D42E9D8023C0A2C64D82C
:104F4C00DFE804F02053454C636363636357C1008F
:104F5C000025E0E7604D013C0C2C56D8DFE804F04E
:104F6C0074565D5555645555555355556D00023C59
:104F7C000A2C4AD8DFE804F0073A2C33494949494E
:104F8C00493E410000250020042401221146FFF770
:104F9C000FFFFFF7DFFC1DB1504A1368002BFCD14B
:104FAC004F4B50485C67FFF70FFEFFF78FFC01F08B
:104FBC0065F90446FFF70AFD01462046FFF714FD8C
:104FCC001DBB28460121BDE8704000F0F5BA002554
:104FDC004548FFF77BFC02200446D6E700254248F3
:104FEC00FFF774FC01240320CFE7002501200324E4
:104FFC00CBE7002503200524C7E70724C9E73B4D71
:10500C00A9E73B4DA7E704232B6070BD0122114695
:10501C000020FFF7CDFE0223F6E7012211461046D1
:10502C00FFF7C6FE0123EFE701F028F9FFF74EFC6E
:10503C00304B01221A600323E6E7012211460720B8
:10504C00FFF7B6FE0523DFE70023DDE7072C04D0CE
:10505C00092CDAD1224B012201E0214B00221A67E4
:10506C00D3E7013C072CD0D801A353F824F000BFA0
:10507C00CF5000001750000017500000C150000026
:10508C001750000017500000B35000009D50000056
:10509C0003221349D1F85C3123F0300343EA0213A5
:1050AC00C1F85C31B1E7012211460420FFF780FE04
:1050BC000122EEE7012211460220FFF779FE0222BF
:1050CC00E7E70022E5E7FFF745FC0025072467E743
:1050DC00D44E0020002D310180400E40C800C64344
:1050EC0000400E4000250A000148E80188400E40AF
:1050FC0084400E400816C84310B504461120FFF733
:10510C00BFFC012200210220FFF752FE174A217C2E
:10511C00536A23F00103022908BF43F001035362D1
:10512C00134B21781960637AA18843EAC123D362B7
:10513C00136BA07A217A03F07F630343E08843EA80
:10514C00C02343EAC11303310F2928BF0F2143EABF
:10515C0001731363A37B617B1B0143EA0133E17B86
:10516C000B43217B43EA0143536310BD00400E40C7
:10517C00A004C843EFF3108072B6704700B962B652
:10518C007047602383F311887047002383F31188E1
:10519C007047EFF31180602383F31188704780F31D
:1051AC00118870474109054A00F01F0352F821008D
:1051BC00D840C04300F00100704700BF00E100E0A0
:1051CC0010B50446EFF31083DB0733D4FFF7EAFF87
:1051DC0000282ED1002CA7BF04F1604404F56144D3
:1051EC0004F00F04144BACBF94F800231A5D520961
:1051FC00EFF3118313B1B2EB531F1BD20F4C636847
:10520C00C3F30803ABB1103BDBB259B20029B5BFF5
:10521C0003F00F0301F16043043B03F56143B6BF98
:10522C001B1993F80003187E4009824234BF0020FA
:10523C00012010BD0120FCE714ED00E000ED00E0C2
:10524C00024A1368002BFCD1704700BFC800C6434C
:10525C0042EA032340F2011293422BD0B3F5817F33
:10526C0008D2012B1DD030D3B3F5807F31D0002272
:10527C0013461CE040F20122934222D006D8B3F52B
:10528C00007FF4D1174BD3F870310DE0B3F5407FAC
:10529C0023D040F201329342E9D1124BD3F878314A
:1052AC000BE0104BD3F87431C3F30722DBB203606D
:1052BC000A6070470B4BD3F874311A0EC3F30743D3
:1052CC00F5E7084BD3F87831EEE7064BD3F86C31A1
:1052DC00EAE7044BD3F86C31EFE7024BD3F87031AB
:1052EC00EBE700BFB081E00F08B5FFF7A9FF084B53
:1052FC0019685A68C1F30121C2F3014291421A683C
:10530C008CBF42F0100222F010021A6008BD00BFE0
:10531C0000300E40064B1B68DB0608D5054B1B699D
:10532C00C3F30443082B02BF034B044A1A607047B3
:10533C0000300E4000400E40D44E0020C0EA210147
:10534C00154B0228D3F8803113D0032814D0012830
:10535C0014BFDBB2C3F307231B0323F47042B1B9B0
:10536C00BAB90E49CA6E22F470421343CB660120BF
:10537C007047C3F30743EFE71B0EEDE70749D1F87E
:10538C00E02022F470421343C1F8E030EFE7002A2A
:10539C00F4D00020704700BFB081E00F00300E4009
:1053AC0038B5234B234D1B7823492448C3F1020203
:1053BC00102393402B6145F60E03D1F88041C1F8C0
:1053CC008031036823F0AA03DB05DB0D0B66FFF7C6
:1053DC0037FF2B6813F0100F04F00104054614D0AE
:1053EC00D1F84031DA01FBD4154B1B680B61154B1E
:1053FC00197805290DD1144B1868FFF721FF0D4BB7
:10540C005968C1F30141FFF7EFFA0E4B19780529E2
:10541C0002D01120FFF770FD2B68DB075EBF064B37
:10542C0002221A661CB1044B0022C3F8802138BD3D
:10543C001559002000300E4000400E400459002049
:10544C00105900200E590020D44E002010B50B4CE2
:10545C000B4BD4F890201A601120FFF711FB094B6D
:10546C001870FFF7EDFE084B084A5B68C3F3014365
:10547C001370074B22691A6010BD00BF00400E402C
:10548C00045900200E59002000300E401559002000
:10549C00105900207047704710B5044608B1FFF74B
:1054AC00D5FFFFF721FF0A4A136943F00403136188
:1054BC00FFF7F0FF30BFFFF7EEFF1CB1BDE8104067
:1054CC00FFF76EBFFFF726FFBDE8104000F0D6BE19
:1054DC0000ED00E010B5044608B1FFF7B7FFFFF789
:1054EC0003FF124BD3F8802145F60E01D207C3F807
:1054FC00801148BF00224FF42071196648BFC3F8D1
:10550C0080210B4A136943F004031361FFF7C2FFB8
:10551C0030BFFFF7C0FF1CB1BDE81040FFF740BF24
:10552C00FFF7F8FEBDE8104000F0A8BE00400E40AA
:10553C0000ED00E00A4B9A69996922F4403242F47A
:10554C00003241F440314AF6E85098609A61996112
:10555C009A6199619A6199619A6199619A617047AE
:10556C0000300E40F8B5124B124DD3F80031044602
:10557C000F4600F05FFE0646FFF762FE6A68C2F354
:10558C000142944213D0022C02D12146FFF72CFA8F
:10559C00C4F10202102393402B610FB1FFF750FEB0
:1055AC002CB921463046BDE8F840FFF71DBAF8BDCE
:1055BC0000400E4000300E4038B50C4B0D46D3F871
:1055CC00004128B900F036FEC4F3042404FB0000AB
:1055DC00074B1B7829463BB1064B984204D8022056
:1055EC00BDE83840FFF7BEBF0020F9E700400E4091
:1055FC0014590020FF2C31010378134A002B4378F7
:10560C0070B514BF04260026002B8378946914BF50
:10561C0002250025002B037924F03F0443EA040300
:10562C00C47814BF08210021012C08BF43F00103EA
:10563C0033432B430B4393611368417923F4403379
:10564C0043EA0143136070BD00300E40224B4AF612
:10565C00E85210B5596B5A639A6FD407FCD41B6C83
:10566C0013F003031EBF1D4A01241460834203D1AF
:10567C0008B91A4B186010BD032B17D0B3B1164ADA
:10568C001446936FDB07FCD4136C23F00303034322
:10569C001364A36F13F00103FBD100300F4A18BF42
:1056AC0001200129106008BF6363E4E7431E012B4E
:1056BC00E5D8094B4FF40022DA629A6FD207FCD47A
:1056CC001A6C22F0030242F001021A64024A536A75
:1056DC001C03FCD5D3E700BF00300E40B40AC64310
:1056EC002DE9F04F002389B0CDE90233CDE9043325
:1056FC00CDE90633A0F5E163B3F5966F054601914C
:10570C00934603D9002009B0BDE8F08F4D4BB0F59E
:10571C00E16F8CBF4FF0010A4FF0000AD3F86831EB
:10572C0000F083801A0EC3F30743079204934FF4DF
:10573C0096694FF4E164DFF81081D8F84C70C7F328
:10574C0001773B46524605A902A8FFF781FDD8F820
:10575C00E060C6F301263346524606A903A8FFF7BC
:10576C0077FD0798049A2C1B811A6143B1FBF9F35E
:10577C00D1182CBF012300238842C3D3002BC1D1E5
:10578C00069A0398131A6343B3FBF9F310EB030A5D
:10579C002CBF012300235245B4D3002BB2D1059B5F
:1057AC00029A981A4443B4FBF9F912EB09092CBF7D
:1057BC00012000204B45A5D30028A3D1BBF1000F3D
:1057CC000ED0D8F85C3023F4FE4323F00203B5F579
:1057DC00E16F43EA012318BF02200343C8F85C3091
:1057EC00019B63B300213846FFF7AAFD002889D03E
:1057FC0001213046FFF7A4FD002883D0124A536ED6
:10580C00D14538BFD14623F4FF73B9F1E70F23F02C
:10581C00010328BF4FF0E709B5F5E16F18BF43F05E
:10582C00010343EA490353666DE7C3F30722DBB276
:10583C00079204934FF416794FF496647BE701209A
:10584C0061E700BFB081E00F00300E40304B1A6FA3
:10585C00D96CC90702F0070242D5012A40D9132896
:10586C0051D9143813288CBF102308232849013B25
:10587C00CA6C180322F47F4240EA03231343CB641F
:10588C00244BCA6C1B88C2F303222833013202EB6F
:10589C00820003EB5303B3FBF0F3C86C013B072B03
:1058AC0020F0EE6028BF072340F4801040EA036329
:1058BC00CB64194BB3F90030002B10DB28335008A4
:1058CC0000EB420203EB5303B3FBF2F30A6D072B1D
:1058DC0028BF072322F0700242EA03130B657047BE
:1058EC00DB6CD90706D4012A04D809280BD90A384D
:1058FC000928B8E7064BDB6C13F00103B6D0012A7C
:10590C0003D82728AFE70423B0E70023AEE700BF96
:10591C0000300E400A5900200C590020054A064B55
:10592C001B68136F23F007031843044B1067188888
:10593C00FFF78CBF00300E408009C6430859002089
:10594C00C1884A2938B50446B0F90C504ED9B1F586
:10595C00FA7F4DD340F6C313994294BF4FF00051D8
:10596C004FF040512748C36C23F0405323F0010300
:10597C00002DA8BF43F001030B43C364D0F8E03003
:10598C0043F44073C0F8E030C36E43F08073C366D9
:10599C001D4B186800B10420FFF7C0FF1B4B218979
:1059AC0019801B4BB4F90C201A801A4BA088188054
:1059BC00FFF74CFFA37BF3B1012B20D00122114642
:1059CC006088FFF78DFE054670B10E4A6078D36B88
:1059DC0043F48063D363FFF739FEA37AA3F120026B
:1059EC00534253410C4A1360284638BD0021B9E795
:1059FC004FF08051B6E7034B084A9A65DEE7014B3E
:105A0C00074AFAE700300E408009C6430A590020C5
:105A1C000C590020085900209407C64377402057A2
:105A2C00372110B7044AD2F8443423F00303184347
:105A3C00C2F84404704700BF00A00040072A70B5AC
:105A4C0001F003014FF00F0523D896001A4CB54016
:105A5C00256004F10074B04020600320B04001FACE
:105A6C0006F61649086001F100710E6014491144E4
:105A7C0089000B609DF81030C1F88030012303FAC7
:105A8C0002F2104BC3F824249DF81430C1F80033F3
:105A9C0070BDA2F10804A4000B4EA54035600B4D5F
:105AAC00A04028600320A04001FA04F408490860D3
:105ABC0001F100710C60D9E700A4004408A4004473
:105ACC008020851000A0004004A4004404A40046DB
:105ADC000CA40044F0B54AB130261E4C01254643B7
:105AEC008D4034440BB304F1C0642560302444432E
:105AFC0004F18044072904F5204419D865688E0008
:105B0C000F27B74025EA070502FA06F6354365600C
:105B1C0052B9012202FA01F1302250430D4A0244DB
