:10000000D82E0020499000009567000099670000F5
:10001000A70A0A010001000004180FAC502ACC0006
:1000200000000000000000000000000000000000D0
:1000300000000000186C0300000000000000000039
:100040000000000000000000FFFFFFFFFFFFFFFFB8
:10005000FFFFFFFF00E007000000000000000000BD
:10006000FFFFFFFFFFFFFFFF280000000000000070
:100070000000000000000000000000000000000080
:100080000000000000000000145E0020145E00204C
:10009000D82E002044BB030038510300002000206C
:0C00A000E01F002000000800000000002D
:10010000D82E0020499000009567000099670000F4
:10011000A16700009D670000A567000045900000F2
:10012000459000004590000045900000459000007B
:10013000A967000045900000459000004590000030
:1001400099360000093C03003D6C00003469000052
:1001500051350300753C0300153C03002D3C0300A2
:100160000D3C0300CD2D0000A12E000089480000A9
:10017000B5870000346900003469000059100000A0
:100180004590000034690000C52E0000050B0000FA
:1001900034690000346900003469000034690000EB
:1001A00034690000346900003469000034690000DB
:1001B000793C0300113C0300512703001D3400006B
:1001C000B93C030034690000B10303003469000046
:1001D00034690000346900003469000034690000AB
:1001E000346900004590000045900000346900002B
:0C01F000346900003469000045900000F4
:1001FC00F8B500BFF8BC08BC9E467047F8B500BF08
:10020C00F8BC08BC9E46704710B5054C237833B932
:10021C00044B13B10448AFF300800123237010BDCD
:10022C00E43500200000000030B4030008B5034B97
:10023C001BB103490348AFF3008008BD0000000068
:10024C00E835002030B40300154B002B08BF134BCE
:10025C009D46A3F5803A00218B460F461348144A5D
:10026C00121A34F0F1FE0F4B002B00D098470E4BB6
:10027C00002B00D098470020002104000D000D48F1
:10028C00002802D00C48AFF3008034F049FE200067
:10029C00290007F0F7F934F02FFE00BF000008002A
:1002AC00D82E00200000000000000000E4350020E3
:1002BC00145E0020000000000000000010B50139A1
:1002CC000A23C90091FBF3F111FB00F080B2082264
:1002DC00002342F21071904202D8141A5D2C04D9FA
:1002EC0001338B4202F15502F5D103EB830303EB8F
:1002FC0003135530C01AC0B210BDF0B50B46002523
:10030C00013A5C1AA24200DCF0BD1E79B60006F47C
:10031C0040771E782CB23E44B60020F814601E794B
:10032C00360106F440775E7800EB44043E44B60098
:10033C0066801E79B60106F440779E783E44B6007E
:10034C00A6801E79360206F44077DE783E44B6006D
:10035C000435E680EDB20533D3E700002A4B2DE9D6
:10036C00F04714461A7805460E4672B901211970E9
:10037C00264B114603F59960002223F81210013226
:10038C00332AFAD166338342F6D1314626442246CB
:10039C002846FFF7B2FF214616F8010C1C4F1B4EE6
:1003AC00FFF78CFF0021013C4FF0550C4FF0660E0F
:1003BC004FF033088946E4000A2394FBF3F4CAB2E5
:1003CC00A24201DBBDE8F08700EB020A9AFBFCF3CA
:1003DC000CFB13A335F812A0FB5CFA5C0EFB02625B
:1003EC000131B2F8642008FB03220EFB036326F8EC
:1003FC0012A0B3F86420013292B2132A94BFA3F86E
:10040C006420A3F86490DAE700360020984C0020B2
:10041C00E02E00202DE9F04F8B1895B013F8013C1D
:10042C007D2B05460E461CD96A33DBB20D93462351
:10043C0092FBF3F2D2B25A4302F10F031293DFF89C
:10044C000C930F230B930024129B0B9A93420BD10A
:10045C00B94A138801339BB2B3F57A7F08BF0023E6
:10046C00138015B0BDE8F08F9DF82C70A7F10F0824
:10047C000B9B5FFA88F8984509DB37331393139B72
:10048C00BB4200F3A0800B9B46330B93DCE708F1D7
:10049C0004010FFA84FE735C9B0003F4407016F8A1
:1004AC00083003439B0025F81E304FEA4E0208F13A
:1004BC0001030E93931C705C0F930E9B0001F35C75
:1004CC0000F440700343901C9B002B5208F1020374
:1004DC0016F801C010934FEA8C1CF35C0CF4407CB2
:1004EC00101D43EA0C039B002B5208F103031193DC
:1004FC00931D16F801C00C93119B0C9AF35C4FEAF8
:10050C000C2C0CF4407C43EA0C039B00AB5255239F
:10051C00B4FBF3FC03FB1C4C884A35F81EA05FFAB5
:10052C008CFC12F80CC00F9A29F81CA004F1010ADB
:10053C0035F802B09AFBF3FC804A139203FB1CAC17
:10054C0004F1020A12F80CC029F81CB09AFBF3FC57
:10055C0003FB1CAC35F800B012F80CC00C9A29F84F
:10056C001CB004F1030A35F802B09AFBF3FC734A91
:10057C0003FB1CA3D35C29F813B00D9BF3B9735C7C
:10058C000893119B6E49F35C0793109BF35C0693E5
:10059C000E9BF35C059316F8083004930C9BEB5AF6
:1005AC0003932B5A02930F9BEB5A019335F81E3091
:1005BC00009322464346012001F0A3FE0434E4B22A
:1005CC0008F1050854E7342C01D0892C33D155227D
:1005DC00B4FBF2F302FB1343DBB2DFF860C116F895
:1005EC0007E01CF8032039F812004FEA8E0202F0E3
:1005FC007C0221B21EF0200F14BF1218821A25F8AB
:10060C0011201CF8033035F8112029F813200D9B0C
:10061C0006EB07085BB998F80030019335F81130F8
:10062C00009322463B464749012001F06AFE013700
:10063C000134FFB2E4B2E21C552192FBF1F301FB51
:10064C0013230E9305EB42030C9323B210933B48F8
:10065C0011915B000F9305EB030806EB070A0023CF
:10066C00032B40D0119A1AF803B0E11891FBF2FC5D
:10067C0002FB1C1C1BF0200F10F80C1039F811E0B9
:10068C004FEA8B0101F07C0114BF7144AEEB010108
:10069C0028F8131010F80CC038F8131029F81C1097
:1006AC000133042BDCD10D9BC3B9F31926499A787D
:1006BC0006925B780593F35D04930F9B2B4401200A
:1006CC00DA8803929A8802925B880193109B35F822
:1006DC001330009322463B4601F013FE04340337DB
:1006EC00E4B2FFB2CBE6F15D9AF802C00E9A891023
:1006FC0001F0300141EA9C119AF801C04FEA2C1C20
:10070C000CF00C0C41EA0C0110F802C039F81CE09A
:10071C004FEA810C0CF07C0C8A060C9A4CBFF4440A
:10072C00AEEB0C0CA2F800C00C9AB2F800C00E9AFA
:10073C00815C29F811C0B3E702360020E02E0020BE
:10074C0070530300A4530300BE53030060510020F8
:10075C0010B596B056220021074C684634F074FC54
:10076C0068460FF01FF820461022694606F0DEF8A6
:10077C00204616B010BD00BF14360020024B187076
:10078C0002480DF0F1BF00BF253600208C5100202F
:10079C0030B593B004AD194C38220021284634F002
:1007AC0053FC2278072A04D04FF4C271144805F088
:1007BC0077FE0120134901F093FD012001F078FD33
:1007CC0010B1114801F0B2FD1049012001F099FD62
:1007DC0000230F4A0295CDE9003302210A4826F086
:1007EC0051FC024618B10B49012001F08AFD42F27E
:1007FC0010712078FFF7C2FF13B030BD25360020F2
:10080C00EB5303000654030078330020585E0300BA
:10081C003756030016540300204B10B500241C70EF
:10082C00052837D8DFE800F0030F381A30120229F8
:10083C0003D11B49012001F064FD00210220BDE819
:10084C001040FFF79BBF00210120F8E7032923D1BB
:10085C0014490120BDE8104001F053BD124B1A7829
:10086C00012A0FD0114C124B032A18BF1C46FFF75C
:10087C006FFF104903462246012001F042FD002182
:10088C000420DCE70C4CF2E7A9210C48BDE8104031
:10089C0005F006BEAC21F8E710BD00BF8C5100205E
:1008AC00725403008C540300253600206B54030053
:1008BC004D540300A454030056540300EB5303009F
:1008CC0010B50B4B1B78012B044603D0BF210948F4
:1008DC0005F0E6FD54B122460749012001F011FD57
:1008EC0000210220BDE81040FFF748BF10BD00BF3B
:1008FC0025360020EB5303004955030010B5114B6E
:10090C001B78022B044603D0DF210F4805F0C8FDED
:10091C002CB921460320BDE81040FFF72FBF012062
:10092C000A4901F0DDFC012001F0C2FC10B10848BD
:10093C0001F076FD07490120224601F0E2FC00217E
:10094C000220E8E725360020EB530300A0550300F6
:10095C003E2F0020BC55030010B50B4B1B78032B0E
:10096C00044604D040F20511084805F099FD54B135
:10097C0022460749012001F0C4FC00210220BDE8F9
:10098C001040FFF7FBBE10BD25360020EB530300D3
:10099C001B55030070B5164B1B78042B0C461646E2
:1009AC0025D128B901460520BDE87040FFF7E6BE09
:1009BC00830708D40F49012001F092FC34B90E4989
:1009CC00012001F09EFC00210620EDE70B490120DF
:1009DC00013E01F085FC651E3444094EA542EED063
:1009EC0015F8012F3146012001F07AFCF6E770BDB5
:1009FC0025360020F0540300585E03002E760300C9
:100A0C001855030010B50E4B1B78052B044604D06B
:100A1C0040F23D110B4805F043FD4CB90A49012049
:100A2C0001F06FFC21460620BDE81040FFF7A6BE82
:100A3C0006490120224601F064FC00210420F3E762
:100A4C0025360020EB530300B4540300C8540300B4
:100A5C001FB500200DF1070101F07EF89DF807305D
:100A6C00202B044607D9154B154A1649022001F0D4
:100A7C0048FC04B010BD00F07DFF012813D902A979
:100A8C00012001F0FBF89DF80720214602A825F073
:100A9C00E5FA022010211DF0E1FA02A81DF0F8FA87
:100AAC001DF014FBE5E721469DF80720002025F0FA
:100ABC00D5FA012108461DF0D1FAF1E70B560300D7
:100ACC001C56030020560300024618B903490120A6
:100ADC0001F017BC0249012001F013BC655503005D
:100AEC0078550300034B1B78072B01D1FFF750BE41
:100AFC00704700BF25360020194BF0B5DA68194C49
:100B0C005A61257825B31849184B0A6802B91D801B
:100B1C001748184F102606701E8806EB860302EB4A
:100B2C00430303F6F6731B019BB237F813304FEAFD
:100B3C00132EDFB2012300EB030C00F803E00233A9
:100B4C00212B8CF80170F6D101320A2A01D00A60EF
:100B5C00F0BD0023AE420B6008BF2370F8E700BF66
:100B6C0000840140043600200C360020263600207C
:100B7C0064590020945100202DE9FF412A4ABDF808
:100B8C00286012780B9C072A39D1B6F5806F48D8AB
:100B9C00264D1A460021D01A86421BDC244D2B68A8
:100BAC003344244E2B6033680133642B33600FD1F4
:100BBC00214F08F063FB3B682A682049C31A804622
:100BCC00012001F09EFB0023C7F8008033602B60EE
:100BDC00442115E050781778000940EA071025F8F1
:100BEC00110092F801C090784F1C40EA0C20C0F321
:100BFC000B00023125F81700C9B20332CBE7A32151
:100C0C004B09022B02D02378FF2B07D00023CDE910
:100C1C00013300931A46204626F07CFC04B0BDE854
:100C2C00F0818021ECE700BF253600209451002094
:100C3C0028360020103600200836002034540300DB
:100C4C0018B90249012001F05CBB7047355503000F
:100C5C0007EE901AF8EE676A07EE900AB8EE676A2C
:100C6C00DFED057A86EE277AC6EE877AFCEEE77A18
:100C7C0017EE900A704700BF00007A442DE9F3414B
:100C8C00089EBDF82450234C08F0F8FA73192A4634
:100C9C0013F8013C2048622B31462ED8FFF75EFB3F
:100CAC006B1E0A22DB0093FBF2F3226813441B4EEB
:100CBC00236033681D443560194D2B680133642B58
:100CCC002B6017D1174F08F0D9FA3B682268C31A6A
:100CDC00114680461846FFF7BBFF3168CDE900018D
:100CEC001149012001F00DFB0023C7F800802B6097
:100CFC003360236002B0BDE8F081942B04D8FFF779
:100D0C0089FB23685533D2E7FFF784FB2368AA33AA
:100D1C00CDE700BF28360020945100202C3600204F
:100D2C001036002008360020CB55030000207047F9
:100D3C0000B5494A00231370484A1278013A97B01B
:100D4C00072A00F28380DFE802F004102540434DAF
:100D5C00777AFFF7FDFC42490246012001F0D1FAF7
:100D6C000EF0CCFE17B05DF804FB01203D49029358
:100D7C00CDE9003301F0B4FA012001F099FA10B179
:100D8C00394801F04DFB384B0093012168461FF0A8
:100D9C0001FDE7E756220021684634F055F9334A45
:100DAC003349012001F0ADFA684610222F4905F0B5
:100DBC00BDFD03238DF823302E4A0A2331216846CA
:100DCC008DF8243010F04EFDCCE71CF0CBFDC9E7BC
:100DDC00294A2A49012001F094FA072126481DF0DE
:100DEC00B1F9BFE70120264901F08BFA012001F08F
:100DFC005FFA10B1234801F099FA0120224901F061
:100E0C0080FA012001F054FA10B1204801F08EFA5A
:100E1C0001201D4901F075FA012001F049FA10B1C9
:100E2C001B4801F083FA1849012001F06AFA0021ED
:100E3C000720FFF7A3FC95E7FFF7AAFC92E71549FB
:100E4C00012001F05EFA0EF051FE8BE74FF41071A9
:100E5C00114805F025FB85E78C5100202536002034
:100E6C0048560300A55503003E2F002027560300CB
:100E7C006B56030000F8FF0746540300805603002E
:100E8C009B56030068330020585E03007833002023
:100E9C0088330020CB560300EB530300FFF746BF0B
:100EAC0000F024B800F023B800F023B800F023B809
:100EBC0008B500F059FDBDE8084000F01DB808B5B4
:100ECC0000F0FAF906F022FA06F0FEFA0EF0D8FA63
:100EDC0000F013F8BDE8084007F038BA00F00AB883
:100EEC00FFF79ABC704770477047704770470120F6
:100EFC0070477047704770477047704738B5A0F11E
:100F0C00430305460A2B32D8DFE803F0060A0A121F
:100F1C001231313131311100BDE8384033F072BD3E
:100F2C0033F03CFD20B133F06DFD0028FBD138BD12
:100F3C00124C20780028FAD10123443D237007F08D
:100F4C0065FE032D0DD8DFE805F00606090240F614
:100F5C00010008F02BF900232370E8E740F60200AB
:100F6C00F7E74FF48371064805F09AFAF3E74FF46C
:100F7C008C710348BDE8384005F092BA3036002039
:100F8C00E3560300002070477047704700207047FD
:100F9C00704770477047704770477047704770478D
:100FAC000020704770477047704770477047704714
:100FBC00704770470020704770470020704770479B
:100FCC00704770477047704770477047704770475D
:100FDC00704770477047704708F012BC10B4BDF8EA
:100FEC00084002945DF8044BFFF748BE70B5134CF3
:100FFC008A00A31822449B781D09062D98BF104E19
:10100C0003F00F0394BF755DFF25062B05719ABF86
:10101C000C4DEB5CFF234371FF3B18BF0123837125
:10102C00D37014F82130084C437053788370014608
:10103C00204603F099FC0123A36070BD31360020DB
:10104C002F5C0300285C0300002000407FB5224980
:10105C0022480022FF23CDE901228DF809300378C4
:10106C004C6C8D6B03922C40E407DBB228D5022B21
:10107C0026D88C6C1A4901EB8301A5B2CE7819499C
:10108C0006B326041ED521F813201749012202FAB3
:10109C0003F30A781343154A0B701378CBB1002372
:1010AC001478DC40E407D9B20FD501701078012414
:1010BC0004FA03F34340DBB201A81370FFF796FF69
:1010CC0004B070BD21F81350DFE70133032BE7D1D7
:1010DC00F6E703230370F3E7002000403D360020C1
:1010EC0031360020403600203F3600203E360020AE
:1010FC000C490D4B10B5002A14BF0A461A4604467B
:10110C000A49012001F0ECF8012001F0D1F810B1EE
:10111C00204601F00BF906490120BDE8104001F012
:10112C00F0B800BF365C03003F5C03004C5C03006E
:10113C00585E030001207047012070470120704762
:10114C00062804D007280CBF01200220704700207D
:10115C00704700002DE9F04385B04FF48073ADF873
:10116C000C3001F07BFE01211548DFF85C80DFF8C4
:10117C005C9003F0E3FC0121124803F0DFFC002437
:10118C00012703AB0122E35C18F8336008EBC303BF
:10119C0030465D680023294604F038FD4946E8B224
:1011AC0001F06AFECDE9007701232A462946304634
:1011BC0004F0E0FC14B105B0BDE8F0830124E0E7D5
:1011CC004041050000350A00505C0300611200002C
:1011DC0008B5FFF7B5FF022816BF024B0020185CBC
:1011EC0008BD00BF4636002008B5FFF7A9FF02284E
:1011FC001CBF014B195408BD4636002008B5FFF73B
:10120C009FFF022805D0034A135CB3FA83F35B09F2
:10121C00135408BD4636002008B5FFF791FF02288D
:10122C0011D00A4A12F8301030234B4302EBC002A3
:10123C0007491944536803EBC1039B001868B0FAC3
:10124C0080F0400908BD0020FCE700BF505C0300A3
:10125C001CA0104270B50446FFF7DEFF00260546C1
:10126C0001E000261D462046FFF7D6FFA8420346A4
:10127C00F7D10136052EF2D12046FFF7A9FFA8427F
:10128C000BD029462046FFF7AFFF2046FFF7A0FF03
:10129C0001462046FFF726FE70BD2046FFF7AEFF45
:1012AC002046FFF795FF01462046FFF71BFE204620
:1012BC00FFF7A4FFE9E7000008B52021002000F0AB
:1012CC0017FD30B1034A04490120BDE8084001F084
:1012DC0007B808BD605C0300675C03002DE9F04FA4
:1012EC00A5B080468A46002006A900F0D5FC48B976
:1012FC000220424B424A434901F003F8022025B038
:10130C00BDE8F08F0021012000F026FC16AF38223A
:10131C00002181460024384633F096FEADF8164085
:10132C0000F028FB022857D90DF11601022000F01D
:10133C0043FC064600F01EFB032806D92146032079
:10134C0000F00AFC03788DF88C302F4C22684FF695
:10135C00FF739A420AAD41D02C49022000F0D1FF14
:10136C0022680C21284626F00FF90124DFF8B0B0D2
:10137C00DBF800204FF6FF739A420BD02449022071
:10138C0000F0BFFF05EB0410DBF80020112126F064
:10139C00FBF80134DFF88CB0DBF800204FF6FF735C
:1013AC009A420BD01B49022000F0ABFF05EB041056
:1013BC00DBF80020172126F0E7F801341C958DF896
:1013CC007440BAF1000F0BD00220134B0C4A0D499C
:1013DC0000F097FF012092E72646B6E70024C5E708
:1013EC000E4B0193BDF816300093029733464A46D4
:1013FC00414606A825F046FE81E700BF6C5C030061
:10140C001C56030020560300582F0020775C030065
:10141C00925C0300AC5C0300CA5C03003514000052
:10142C00502F0020542F00202DE9F0439BB0044690
:10143C000D4602203D49BDF888601746984600F0DD
:10144C004FFF204625F07AFB39490246022000F076
:10145C0047FF002C50D0284625F048FB3449024663
:10146C00022000F03DFF00221146384625F008FC12
:10147C00431C054624D06422002101A833F0E4FD6E
:10148C00A8B263283FD90130002180B20CF09EFB3A
:10149C0000283CD00BF0F8FF4FF000090446AAB22C
:1014AC002146384625F0ECFB22462249022000F06A
:1014BC0017FFB9F1000F03D01F49022000F010FFF5
:1014CC00D6B101AA0C21384625F0C7FB20B3019CEC
:1014DC00204625F01FFB19490246022000F000FFB0
:1014EC000CB1282C1BD1022000F0E2FE20B13246B8
:1014FC004146022000F076FF1149022000F001FF66
:10150C001BB0BDE8F0834FF0000901ACC7E74FF00A
:10151C00010901AC6325C2E74FF0FF34D8E7002383
:10152C0032464146022000F069FFE5E7F45C030017
:10153C004C760300FE5C0300915E0300045D030027
:10154C00585E03001FB50020694600F0A5FB40B9AA
:10155C00084B094A0949022000F0D3FE05B05DF89A
:10156C0004FB694641F233601EF02CFE044A054927
:10157C000346F0E76C5C03001C5603002056030086
:10158C006E5A0300EC5C030010B500210120FFF73C
:10159C00A5FE044A04490346BDE81040022000F0B1
:1015AC00B0BE00BF875B0300EC5C030010B50021EC
:1015BC000220FFF793FE044A04490346BDE810409D
:1015CC00022000F09EBE00BF8B5B0300EC5C0300AE
:1015DC0010B500210320FFF781FE044A044903469D
:1015EC00BDE81040022000F08CBE00BF955B0300EC
:1015FC00EC5C030010B500210420FFF76FFE044AD9
:10160C0004490346BDE81040022000F07ABE00BF3A
:10161C007D5B0300EC5C0300012110B50846FFF76D
:10162C005DFE044A04490346BDE81040022000F068
:10163C0068BE00BF875B0300EC5C030010B50121A2
:10164C000220FFF74BFE044A04490346BDE8104054
:10165C00022000F056BE00BF8B5B0300EC5C030065
:10166C0010B501210320FFF739FE044A0449034653
:10167C00BDE81040022000F044BE00BF955B0300A3
:10168C00EC5C030010B501210420FFF727FE044A8F
:10169C0004490346BDE81040022000F032BE00BFF2
:1016AC007D5B0300EC5C030008B5002000F0E4F95E
:1016BC00014B186008BD00BF502F002008B500205A
:1016CC0000F0DAF9014B186008BD00BF582F00205C
:1016DC0070B5012000F0D0F90128124C03D94FF657
:1016EC00FF73236070BD002000F0C6F97F28F6D888
:1016FC00022000F0C1F9B0F1805FF0D2012000F0BF
:10170C00BBF90546002000F0B7F90646022000F0B0
:10171C00B3F90246281CF1B218BF012025F01EFFB8
:10172C002060DFE7542F00202DE9F04F074685B0ED
:10173C0008460D469046994633F0AEFCBDF838A0ED
:10174C000F9E204C8346636853B9CDE90133009357
:10175C001A468421304625F0DDFE05B0BDE8F08F39
:10176C0022892078991811F8011C2F2904BF02F145
:10177C00FF3292B208B1B84221D12F291DD1934525
:10178C0006D3A95CB9B12F2914BF0021012100E0B7
:10179C000021A1B12946184633F086FC78B9CDE971
:1017AC000EA6E4684B46424629463846A44605B088
:1017BC00BDE8F04F60470121EBE79345E4E71034B7
:1017CC00C1E700BFD45B03000020704700207047C6
:1017DC0070477047F8B50546846802681B4920209D
:1017EC0006F037FD6B68DBB1194D1A4E1A4F013CF0
:1017FC0014F8013FC3B1752B1CD0762B1CD0772B62
:10180C001CD0732B1CD0622B1CD06E2B1CD01349FC
:10181C00134A2A2B18BF1146202006F01AFDE7E7C1
:10182C001049202006F015FD0F492020BDE8F84096
:10183C0006F00FBD2946EFE73146EDE73946EBE7F9
:10184C000A49E9E70A49E7E70A49E5E7627603004E
:10185C00655E0300595E0300705E0300985E030032
:10186C00955E0300915E0300565E03007C5E0300F0
:10187C00865E0300905E030013B50446FFF7AAFFD3
:10188C0001A9204600F020FA18B1084C019B1B68F6
:10189C000BB902B010BD2146202006F0DAFC0198ED
:1018AC00FFF798FF019B0C330193EFE7445D0300B6
:1018BC0008B50449202006F0CCFC2020BDE80840E7
:1018CC0006F02DBD475D030038B5FFF7F1FF064D5F
:1018DC00002460190C34631953F80C3C03B938BD5F
:1018EC00FFF778FFF5E700BF58590300094B10B517
:1018FC0053F820200C462020074906F0AAFC44B1DE
:10190C000649202006F0A5FC2046BDE81040FFF754
:10191C00B3BF10BD245D03000D5D0300195D030012
:10192C0000230370A0F8663080F88630C0F8903041
:10193C004FF07F42A0F88C300A23C0F8882080F842
:10194C008E307047074B00224FF07F411A70A3F87E
:10195C00662083F88620C3F8881083F88C20C3F89F
:10196C0090207047885900200148FFF7D9BF00BF6D
:10197C0088590020034B93F8860093F88C30C01ADA
:10198C00C0B2704788590020034B03EB4000013371
:10199C00B0F866001844704788590020044B03EBDC
:1019AC00400292F8680092F86630C01AC0B27047D4
:1019BC0088590020044B03EB4002B2F86800B2F8DF
:1019CC006630C01A80B2704788590020054A92F8D8
:1019DC008C30184440B202EB40000132B0F8663053
:1019EC00D05C7047885900202DE9F047204C054603
:1019FC0094F88C002844C0B243B204EB43030E4667
:101A0C00B3F86680FFF7CAFF8146FFF7B3FFA84221
:101A1C0094F88E7003D8D521164804F041FD4FF090
:101A2C00000A55465FFA8AF399451CD90AEB08025D
:101A3C002244507816B10BB92D280DD000F0DF02DE
:101A4C00582A03D115B9013B012B0FD90DF094FB8A
:101A5C00874204D905FB07050AF1010AE2E70523D1
:101A6C0084F88A3000252846BDE8F0871027F3E774
:101A7C00885900200A5F030010B5164991F88E3082
:101A8C00FF2B044621D1FFF789FF64B201EB44041C
:101A9C000246B4F866004B1C012A00EB030101D18D
:101AAC00C05C10BD022A03D108460DF06BFAF8E7B2
:101ABC00042A04D10020BDE810400DF091BA06486C
:101ACC00F92104F0EDFC0020EBE70021BDE810400B
:101ADC00FFF78ABF885900200A5F030038B51C49FC
:101AEC0091F88E30FF2B044623D1FFF757FF64B2D9
:101AFC0001EB440402464B1CB4F86600012A00EBCF
:101B0C000301C45601D1204605E0022A04D108463F
:101B1C000DF038FA00B238BD042A04D10020BDE81B
:101B2C0038400DF05DBA4FF487710A4804F0B8FCE8
:101B3C00E9E7FFF74BFFA0F12D0359420546594148
:101B4C002046FFF751FF2D2D08BF4042E3E700BFB1
:101B5C00885900200A5F0300F8B5164B93F88E20C5
:101B6C00FF2A04461D4603F101060CD121B1C0B277
:101B7C00FFF714FF0138087005EB4404B4F8660055
:101B8C0001303044F8BD93F88C002044C0B242B20E
:101B9C0003EB4203E543B3F86670ED0FF41939B16A
:101BAC00FFF7FCFEF35D401B222B08BF01380870C9
:101BBC006019E7E788590020F8B5164B93F88E208A
:101BCC00FF2A04461D4603F101060CD121B1C0B217
:101BDC00FFF7F0FE0238088005EB4404B4F8660009
:101BEC0002303044F8BD93F88C002044C0B242B2AD
:101BFC0003EB4203E543B3F86670ED0FF41939B10A
:101C0C00FFF7D8FEF35D401B222B08BF013808807C
:101C1C006019E7E7885900202DE9F3410D460DF1D5
:101C2C000701904607461C46FFF796FF0646F8B29A
:101C3C00FFF7CCFEA0F122035F429DF807105F4135
:101C4C003944C9B2414528BF41468DF807101CB133
:101C5C00CCB2A8EB0404E4B222462846002104F0DE
:101C6C00EFFE28199DF80720314604F05FFE9DF821
:101C7C000700C01BC0B202B0BDE8F08113B5012350
:101C8C000C4608226946FFF7C7FF08226946204622
:101C9C000DF0C7F902B010BD10B540B20C460021D2
:101CAC00FFF75AFF2146BDE8104013F0A6B938B52E
:101CBC0040B20C4615460021FFF74EFF2A4621463E
:101CCC00BDE8384013F0ACB908B5D0E9012312B91E
:101CDC000B60012008BD1B786E2B04D14FF4D27120
:101CEC00024804F0DDFB0020F4E700BF0A5F0300AC
:101CFC002DE9F04FA24C97B0814688460026B9F1E9
:101D0C00000F0DD10DF113015FFA88F006F000FB06
:101D1C0090B1262800F0B281012384F88A3051E07A
:101D2C00B8F1000F00F0AA8119F8013B8DF81330BF
:101D3C0008F1FF381FFA88F894F88D309DF813508D
:101D4C0084F88D500D2B01D10A2DD8D00D2D0CD02F
:101D5C00A5F10A035F425F4123783E46042BCED89F
:101D6C00DFE803F0051A244232000127F4E7002FC4
:101D7C005BD1202D00F06581222D08D10223237028
:101D8C00B4F88820642A40F05E810623C5E77B2DD9
:101D9C000CBF03230123F2E70FB9202DF0D194F8E7
:101DAC0086300F2B40F03E810323B6E7222D03D162
:101DBC0000238DF81330E3E7002FE1D0052384F8DE
:101DCC008A30012604232370002E98D094F88A00C0
:101DDC0018B1D4F89010FFF789FDFFF7B3FD9DF80B
:101DEC00133084F88D308AE77D2D94F88BA004D1C4
:101DFC00BAF1FF0FD3D005238FE728460DF0BCF9BD
:101E0C000F280FD8BAF1FF0F09D094F88B3000EBE4
:101E1C000310FF238DF8130084F88B30B0E784F89F
:101E2C008B006CE7202DE6D169E7564B059394F8AF
:101E3C008630002BC5D0002778B2059DFFF7A4FD96
:101E4C0082463846FFF7AAFD0022029016469346BA
:101E5C00296861B9E2B10591022384F88A3094F8BB
:101E6C008A30002BADD1059B5B689847A9E70B78AE
:101E7C0043B34B1E0193D446019911F8013F0191D4
:101E8C000299ACEB0A0088423ED1002B3DD1AB4607
:101E9C00CDF814B0BBF1000FDED094F88C30C4F840
:101EAC0090B00137013305A95846FFB284F88C3045
:101EBC00FFF70AFF002844D094F88630BB42BBD809
:101ECC000323CAE70F2EAB6808D94FF480712E4854
:101EDC000392019304F0E4FA039A019B16A901EB17
:101EEC0086010C35013641F8405CF6B21D462B6874
:101EFC00002BADD1002EABD0013EF6B216AB03EBEE
:101F0C00860353F8405CA3E72BB9BBF1000F16D046
:101F1C0001220C35EBE71CF8010BA0F1410EBEF1D0
:101F2C00190F98BF2030A3F1410E98BFC0B2BEF17B
:101F3C00190F9CBF2033DBB283429DD0E9E7AB463F
:101F4C00E7E7059B9B681B783F2B88D00646054628
:101F5C004FF0070A4FF0040B40E010460293019239
:101F6C00FFF734FD029B019A732B0FD8712B11D202
:101F7C00002B55D0622B4BD084F88AA020E000BFF8
:101F8C0088590020585903008D5F0300A3F1750197
:101F9C000229F1D8752B34D0762B34D0732B35D055
:101FAC00722B47F6FF7318BF4FF0FF330121104619
:101FBC000193FFF719FD019B984201D984F88AB06F
:101FCC00059B9B682B4401365B782A2B94F88A304E
:101FDC001CBF0135EDB2002B7FF4F3AE059B94F8DA
:101FEC0086C09968F2B2B818C0B284454B5DB4D8BB
:101FFC00002B3FF434AF0D446B782A2B7FF460AF89
:10200C002DE7FF23D2E74FF6FF73CFE77F23CDE712
:10201C002228D5D07B28D3D0052384F88A30CFE76B
:10202C000323FAE70133DBB284F8863004EB430375
:10203C00B4F88820A3F8662000232370002F7FF4C7
:10204C00F4AE3E465BE62178012909D19DF81330A8
:10205C00A3F1410019289CBF2033DBB28DF813305B
:10206C00A0189DF81330437001320229A4F888207F
:10207C007FF445AE002B3FF492AE40E6304617B0ED
:10208C00BDE8F08F012270B51146042002F02CFF40
:10209C001A4B1B4D1A681B4842F001021A60DA6891
:1020AC004FF0604442F08072DA60174BC4F8B03FD6
:1020BC0000260223C4F8006EC4F8806EC5F8F03018
:1020CC0002F01EFE00F5D520104B114A00F2FC4028
:1020DC00B0FBF3F00F4B01382861C4F8406E1A6066
:1020EC000D4BC4F8803E4FF48073C5F80433D4F81C
:1020FC00003E43F48073C4F8003E70BDF0ED00E088
:10210C00000004E006000E0055CEACC5F8590D00D9
:10211C00FF030040001000E00D00010010B501218C
:10212C00114802F00BFD114B01241C60002003F040
:10213C0015FD234604220221052003F067FD2046ED
:10214C000CF0A8FEFFF79EFF0CF0D6FE084B1C709F
:10215C0006F0B4FE234640220649074806F084FEEA
:10216C00064B1860C00F10BD00350A0010881442D1
:10217C0048360020493600200B6003005C2F0020FD
:10218C00024B1868003018BF01207047F0ED00E0DA
:10219C00054A4170D12303701378C370090A81700A
:1021AC00591C117004207047893600202DE9F74F17
:1021BC000E78042E83460F4661D907F066F8DFF8D7
:1021CC00C480751DEDB282464FF6FF710024C146E6
:1021DC00D8F800305BB1A54209D9019107F055F848
:1021EC00A0EB0A0080B2B0F5FA7F019907D9281B41
:1021FC0018BF012004233B7003B0BDE8F08FB4B3CB
:10220C00012C37D0EA1E631C9442DBB21CD1CCB239
:10221C004FF06042D2F8800EC00713D51046D9F8A3
:10222C000CC04CF0807CC9F80CC0D0F800CE4CF43B
:10223C00807CC0F800CED0F820C0BCF1000FEED0EE
:10224C0082F820401C46C3E7AA1E944202D1C1F377
:10225C000724DDE76A1E94420FD05C44019314F806
:10226C00024C204604F026FA019B0146D0E75B2481
:10227C000123CDE734460223CAE75D24C8E70020DA
:10228C00B8E700BFF0ED00E000B5084B91B040227C
:10229C006946186806F0D6FD20B1C2B26946122014
:1022AC000CF03CFE11B05DF804FB00BF5C2F00206D
:1022BC00094B18804FF6FF73984208D0030A08D1D7
:1022CC00064B1B78034214BF0120002070470120ED
:1022DC0070470020704700BF8A360020602F002016
:1022EC000EB403B503AA52F8041B0192FFF7E0FFEA
:1022FC0010B1202005F0D5FF02B05DF804EB03B05F
:10230C0070470EB403B503AA52F8041B0192FFF7F1
:10231C00CFFF28B1202005F0C4FF202005F0A8FF36
:10232C0002B05DF804EB03B07047000000B58BB051
:10233C002822694612F04EFE28B1044B0449188835
:10234C006A46FFF7CDFF0BB05DF804FB8A36002020
:10235C004D76030000B58DB02C2301AA12F044FE7B
:10236C0028B1044B0449188801AAFFF7B9FF0DB036
:10237C005DF804FB8A3600204D76030008B5FFF7A4
:10238C0097FF20B12020BDE8084005F0C8BF08BD6C
:10239C002DE9F84F07468846164699469DF828A021
:1023AC00FFF786FF28B1002402F1FF3BB442A5B22F
:1023BC0001D1BDE8F88FBAF1000F10D0ABEB0403DC
:1023CC0018F803204946384605F00F05FFF788FF3B
:1023DC00062D02D13846FFF7D1FF0134E6E723463C
:1023EC00EEE7000007B500230093034BFFF7D0FF87
:1023FC0003B05DF804FB00BF1855030037B500248B
:10240C000094054D054C002B14BF2B462346FFF7BB
:10241C00BFFF03B030BD00BF1B600300C75C0300EF
:10242C0038B50C4C05460123082201462088FFF7DD
:10243C00E5FF20880849FFF753FF0822A9182088D8
:10244C000123FFF7DBFF20880449BDE83840FFF784
:10245C0058BF00BF8A360020455D0300585E03005C
:10246C0037B5084C084905462088FFF739FF01238A
:10247C0000932088054B08222946FFF789FF03B0FB
:10248C0030BD00BF8A3600205E740300C75C0300B9
:10249C0037B5084C084905462088FFF721FF012372
:1024AC0000932088054B08222946FFF771FF03B0E3
:1024BC0030BD00BF8A3600205E740300C75C030089
:1024CC0038B504460D46AAB101200B49FFF708FFA9
:1024DC000120FFF7EDFE18B129462046FFF73AFF21
:1024EC0006490120FFF70DFF29462046BDE838407C
:1024FC0027F0DABB38BD00BF246003000776030069
:10250C0070B50D461646044690B101200949FFF7F7
:10251C00E7FE0120FFF7CCFE18B131462846FFF745
:10252C0019FF224604490120BDE87040FFF7E9BEBF
:10253C0070BD00BF1F600300406003002DE9F04F29
:10254C004D4CA36BD4F850B0D4F840A05A074FBFF1
:10255C000027D4F84CB0D4F85480D4F83CA05ABF1F
:10256C00464FDFF84091DFF84091454A48BFB846E6
:10257C0013F0080F434B18BF1A46B7EB08061CBFE5
:10258C007308642187B01FBF01FB0B33B3FBF6F359
:10259C009BB205933C49CDF800804B46CDE9017ABE
:1025AC0008BF0596054605F069FEB3B2CDE9009368
:1025BC001FFA8BF2059B3549284605F05FFEA36B8D
:1025CC005B070AD49C3E5E4507D1626D304B9A4244
:1025DC0003D23049284605F051FEBA4501D8C24510
:1025EC0004D24A462C49284605F048FE284605F0F8
:1025FC0096FE236E0BB9636EBBB32849DFF8AC8033
:10260C00DFF8AC90284605F024FE00260127226E48
:10261C0007FA06F3134207D058F8262013781BB19B
:10262C004946284605F015FE0136202EEFD1DFF87D
:10263C007C80DFF87C9000260127626E07FA06F397
:10264C00134209D008EB8603D3F8802013781BB112
:10265C004946284605F0FDFD01360E2EEDD12846E3
:10266C0007B0BDE8F04F05F003BE0D49284607B092
:10267C00BDE8F04F05F002BE00000020D82E00206F
:10268C004A6303008C8703005263030080630300DA
:10269C009C000020B9630300E5630300036403009E
:1026AC0032640300456303003D6303004864030088
:1026BC00617603002DE9F843044604F05FF840F618
:1026CC000123984239D010D840F2025398421DD0C1
:1026DC0040F20173984224D040F20153984213D136
:1026EC006549204605F0CAFD22E040F603239842D6
:1026FC006CD03DD340F60423984200F09C8040F609
:10270C000523984200F0B580BDE8F8835B4920466C
:10271C0005F0B4FD5A4B5B495A6C204605F0AEFDF2
:10272C0006E0574A5849D2E92523204605F0A6FD74
:10273C002046BDE8F84305F0F2BD514D5349204603
:10274C0005F09CFD95F86C309F0703D55049204649
:10275C0005F094FD95F86F305E0603D54D49204683
:10276C0005F08CFD95F96F30002BE1DA4A49B8E79A
:10277C00434D4A49204605F081FD95F8683098078D
:10278C0004D06A6C3F49204605F078FD95F9683015
:10279C00002B04DA6A6F4249204605F06FFDDFF822
:1027AC000C81DFF8189100260127AA6E07FA06F3B0
:1027BC00134207D058F8262013781BB149462046FF
:1027CC0005F05CFD0136082EEFD1B1E72C4D3549F3
:1027DC00204605F053FD2B496A6C204605F04EFD52
:1027EC0095F86930590703D52F49204605F046FD69
:1027FC0095F96930002B04DA6A6F2949204605F0F7
:10280C003DFD2A4FDFF8B4800826AB6EF340DA07A3
:10281C0007D557F8262013781BB14146204605F002
:10282C002DFD0136102EF0D195F86830002B7FF479
:10283C007FAF1F4955E7124D1E491C4FDFF87C80B6
:10284C00204605F01BFD6A6C0E49204605F016FD6E
:10285C001026AB6EF340DB0707D557F8262013780C
:10286C001BB14146204605F009FD01361A2EF0D168
:10287C005EE711494BE700BFCC6003000961030020
:10288C000000002039610300526103006C610300F9
:10289C0084610300BE610300F16103002D6203003B
:1028AC0052620300766203008D62030058600300DD
:1028BC00D3620300036303001C6303006E62030016
:1028CC002DE9F84F164C174FDFF86080DFF860A049
:1028DC000646002523785FFA85FB0BB9BDE8F88F17
:1028EC0057F8043B10492246304605F0B2FC2278DA
:1028FC0004F1010982B9627882B10BF0030103295A
:10290C000CBF41465146304605F0A3FC304605F05D
:10291C0006FD01354C46DDE74C46E8E74146F2E75B
:10292C000065030004000020C3600300565E030032
:10293C00C06003002DE9F04F9B46584B85B01B78C7
:10294C00109F9DF844A0DDF8508006468946154638
:10295C00002B00F09280072A00F291800E9B002B36
:10296C0000F08D800F9B002B00F08980129BB3F53B
:10297C00006F00F38480012801D1002F7FD0484BD9
:10298C0003EB05131B7B002B7BD0464C1022002144
:10299C00684632F059FB04EB45141022B9F1000FD4
:1029AC005CD14946204632F04FFBA37843F010032C
:1029BC00A370E37843F03003E370BAF1000F03D156
:1029CC00DBB243F00303E3703649129BCDF800B041
:1029DC006A01013B885A01EB020C63F30E1088521A
:1029EC000E9BCCF808300F9BCCF804309DF84C10A3
:1029FC009CF80330012E61F383038CF8033042D131
:102A0C001323CCF80C309CE80F000CF1100E8EE860
:102A1C000F00DCF81C20CCF814706FF0030161F38C
:102A2C009F02B9F1010FCCF81C2004D10F9BCCF8FC
:102A3C001830CCF804701A492A018B1841F802801E
:102A4C000027159A5A6028469F605E732246694695
:102A5C0003F06AF9384605B0BDE8F08F0021204636
:102A6C0032F0F2FA1023A3700323E370BAF1000FD3
:102A7C00AAD1DBB243F03003A5E70B48EBE70B48D8
:102A8C00E9E70B48E7E7B8F1000FD4D19CF8023026
:102A9C0068F304138CF80230CDE700BF0C3800202B
:102AAC008C3600200C370020028000F0018000F0F2
:102ABC00078000F038B5104B1B780546BBB1C0B190
:102ACC0002F003FC0D49002301EB0312147B3CB90B
:102ADC002B6001231373146002F0FDFB204638BDFC
:102AEC000133082BF0D102F0F6FB0548F7E7054857
:102AFC00F5E70548F3E700BF0C3800208C360020C2
:102B0C00048000F0028000F0018000F038B502F083
:102B1C00DCFB0B4A05460023D1180C7B5CB9103347
:102B2C00802BF9D103F0B4F8064B28461C7002F048
:102B3C00D2FB204638BD284602F0CDFB0248F9E70F
:102B4C008C3600200C380020058000F00D4B1B78D3
:102B5C0010B5044693B1072812D802F0B6FB0A4B05
:102B6C0003EB04131A7B2AB100241C7302F0B3FB91
:102B7C00204610BD02F0AFFB0448FAE70448F8E722
:102B8C000448F6E70C3800208C360020068000F054
:102B9C00028000F0018000F013B5164B186801900C
:102BAC0000238DF8043002F090FB134B1C7824B1F9
:102BBC0002F091FB114802B010BD01221A7002F014
:102BCC008AFB0F4B1C731C7783F82C4083F83C401A
:102BDC0083F84C4083F85C4083F86C4083F87C406D
:102BEC0004230DEB03008DF8073003F071F8204639
:102BFC00E1E700BF666B03000C380020038000F097
:102C0C008C36002010B588B00E9C07940D9C069451
:102C1C009DF8304005940B9C04949DF82840039437
:102C2C000024CDE9013400920B4602462146204691
:102C3C00FFF780FE08B010BD10B588B00E9C07944D
:102C4C000D9C06949DF8304005940B9C04949DF8C3
:102C5C00284003940024CDE9013400920B4602462F
:102C6C0001212046FFF766FE08B010BD08B50A4BDF
:102C7C001B785BB107280BD8084B03EB00131B7BAD
:102C8C0043B1002103F01AF8002008BD0448FCE70A
:102C9C000448FAE70448F8E70C3800208C3600208A
:102CAC00028000F0018000F0078000F008B50A4BAC
:102CBC001B785BB107280BD8084B03EB00131B7B6D
:102CCC0043B1012102F0FAFF002008BD0448FCE7E3
:102CDC000448FAE70448F8E70C3800208C3600204A
:102CEC00028000F0018000F0078000F008B50A4B6C
:102CFC001B7853B107280AD8084B03EB00131B7B36
:102D0C003BB103F063F8002008BD0548FCE705481B
:102D1C00FAE70548F8E700BF0C3800208C36002095
:102D2C00028000F0018000F0078000F00D4B1B7852
:102D3C0093B1072812D889B10B4B03EB00131B7B03
:102D4C0073B10A4B1A6A012303FA00F010401ABF40
:102D5C0000200B7008707047054870470548704795
:102D6C00054870470C3800208C36002000200E409F
:102D7C00028000F0018000F0078000F00B4B1B7804
:102D8C0010B50C4663B107280CD859B1084B03EBAE
:102D9C0000131B7B43B103F02FF82060002010BD03
:102DAC000448FCE70448FAE70448F8E70C3800202C
:102DBC008C360020028000F0018000F0078000F0CB
:102DCC002DE9F843174E326EF36E12EA030800D564
:102DDC00FEE7154CDFF854900127002518EA070F81
:102DEC0016D02368B7669BB1A16862680131A160F7
:102DFC0028469847637B012B0AD148B909EB451348
:102E0C00197B1A7F60F3410160F3410219731A7741
:102E1C000135082D4FEA470704F11004DED1BDE857
:102E2C00F88300BF00200E408C3600200C370020A9
:102E3C0070B5094E0446012504B970BD94FAA4F08E
:102E4C00B0FA80F005FA00F324EA030456F82030B7
:102E5C00002BF1D09847EFE710380020054B4FF4CA
:102E6C008022C3F880211A604FF48062C3F880215D
:102E7C001A60704700E100E038B504460D4602F0D8
:102E8C0024FA034B43F82450BDE8384002F023BA2F
:102E9C0010380020074BD3F82804D3F81C2410401A
:102EAC0020F42A5020F02A004004400CC3F82404DB
:102EBC00FFF7BEBF00A00040074BD3F82804D3F89F
:102ECC001C24104020F4AA4020F055000004000CF3
:102EDC00C3F82404FFF7ACBF00A000402DE9F84F65
:102EEC00284C4FF0000A04F1A00580464FF0000971
:102EFC004FF0010B237F84F81DA06BB1D4E90023A4
:102F0C00994508BF9045104619460AD2B2EB080005
:102F1C0063EB0901C4E900012834AC42EAD1BDE8F5
:102F2C00F88FE37F33B92377A369002BF4D084F8AF
:102F3C001DB0F1E7D4E90267B8EB000069EB0101C1
:102F4C0032463B4631F058FEB01A67EB0301236959
:102F5C006269002BC4E900010BDD13441D2B636176
:102F6C00E2D9461C41F100071E3BC4E900676361CE
:102F7C00DAE7D31A1D2B6361D6D910F1FF3641F174
:102F8C00FF37F1E76038002038B5074C0025637F28
:102F9C001BB1A369216A284698470135042D04F119
:102FAC002804F4D138BD00BF60380020064B5A6AA3
:102FBC0099690A40D20705D501221A62034A13689F
:102FCC0001331360704700BF00200440003900201B
:102FDC00F0B5194E00214FF0FF324FF0FF3374184B
:102FEC00257F3DB1D4E900459D4208BF94423CBFCA
:102FFC0022462B462831A029F1D1104900240C700F
:10300C005C1C08BFB2F1FF3F0C4614D000279F4256
:10301C000B496FF0640608BF9642086038BF324611
:10302C000849042502440D6201234A6523704B6A4A
:10303C0043F004034B62F0BD603800205838002088
:10304C0054380020002004400F4B1B7870B5054607
:10305C00BBB102F03AF90D490023282606FB0312F6
:10306C00947F14B935B90A4C07E00133042BF5D120
:10307C00084C02E0012191772B6002F02CF92046DC
:10308C0070BD054CFBE700BF5938002060380020AC
:10309C00041000F0011000F0061000F070B5204D87
:1030AC002C78002C3AD101211E481F4E01F046FD10
:1030BC0003211E4801F0BCFF01211D48347101F0B1
:1030CC003DFD304602F060FF1A49012002F042FF3C
:1030DC00194B1A485A6A22F4FF6222F007025A620C
:1030EC0040F2FF721A62164A9C604FF00041C2F81F
:1030FC00801111605A6A42F001025A622146A022E4
:10310C0031F0A2FF0F4B1C700F4B1C700F4B1C604F
:10311C000F4B1C600F4B1C6001232B70002070BDEB
:10312C005938002000250A00612F002005002400DA
:10313C00A00914006A2F00200020044060380020F1
:10314C0000E100E050380020583800205C380020A6
:10315C0000390020043900202DE9F74F93465C4AD2
:10316C001278074689461E46002A00F0AD800328D7
:10317C0000F2AC8002F0A9F8564A282404FB07247C
:10318C008046A17F924629B902F0A5F8524803B0B7
:10319C00BDE8F08FBBF1000F08D116B10C99384681
:1031AC00B047404602F097F80020F0E74B4A4FF446
:1031BC00004C4FF4FA7000219568A6614FF47A72B6
:1031CC000023ECFB0B0131F017FDB9F1010F0246A6
:1031DC000B46C4E9022309D14FF47A7303FB0BFBB2
:1031EC001E2303FB10B323610F236361282303FB0E
:1031FC0007A301304FF0010241F10001C3E90001C6
:10320C001A770C9A83F81F901A62354B1B78002B97
:10321C00C7D1344C236801331EBF236801332360AC
:10322C00314B01931A78E2B9304B2C4E1D600423BC
:10323C00336200236FF064028B4208BF824238BFB6
:10324C00104628447065736A019A43F00403736254
:10325C00012313702368002BA3D02368013B236048
:10326C009FE72368012BF5D1282303FB07A3002636
:10327C00DFF86890DFF874B01E77D9F8242022F0BC
:10328C000402C9F82420DBF80000281AFFF726FEF8
:10329C00FFF77AFE26B9282202FB07A2012010773D
:1032AC002846FFF795FE114BD9F808501868D9F845
:1032BC005420019BA5EB000C121A1878013600283B
:1032CC00C8D09445D9D2C5E7094860E709485EE7FC
:1032DC005938002060380020031000F00020044012
:1032EC00503800205C38002058380020543800201A
:1032FC00061000F0021000F02DE9F843264B1B7865
:10330C0005460C46002B41D0032841D8002941D05A
:10331C0001F0DBFF214B282202FB05339A7F22B9F7
:10332C0001F0D9FF1E48BDE8F8831A7F1AB901F0E5
:10333C00D2FF1C48F7E7D3E900671B4B9D681B4B7A
:10334C00D3F8008001F0C7FF0021A5EB08008F42E5
:10335C0008BF864215D3361A67EB0107B046B9464B
:10336C004FF47A75A8FB052312F5804005FB093351
:10337C004FEAD03243F1000142EA41422260002080
:10338C00D1E74FF000084FF00009E9E70848CAE719
:10339C000848C8E70848C6E75938002060380020BC
:1033AC00031000F0051000F00020044054380020F9
:1033BC00061000F0021000F0041000F0F8B501F057
:1033CC0084FF084D084F2C68BE68FFF7EFFD2B6893
:1033DC009C42F8D101F07FFF0022901944F10001CA
:1033EC00F8BD00BF00390020002004402DE9104832
:1033FC004FF47A74A0FB04BC1BF5804204FB01CC97
:10340C004CF10003D00B40EA4340BDE810880000AB
:10341C002DE9F8431A4C01F058FF626AA1690A4081
:10342C0022F0050153070546216221D5154AA768EC
:10343C00154EDFF85890012111709046636A23F005
:10344C00040363623068381AFFF748FDFFF79CFDF0
:10345C003846FFF7BDFD3268A768636DB91A9B1A31
:10346C0099F800200AB19942E8D2002388F800307C
:10347C00FFF79CFD2846BDE8F84301F02CBF00BFC8
:10348C0000200440503800205438002058380020C8
:10349C00044B4FF04042DA621A6B22F040421A633E
:1034AC00704700BF00300E402C48F0B50022036876
:1034BC002B4D114654592CB11E68AC18002E36D128
:1034CC00234601210832282AF4D101B10360254991
:1034DC00254E0B680022144695592DB11F68B5185E
:1034EC00002F2BD12B4601240832282AF4D104B109
:1034FC000B6000681D4B026842B3DA69007922F058
:10350C00FF020243DA611A6B42F0804209681A63C7
:10351C000A68164BF2B1DA69097922F47F4242EA61
:10352C000122DA611A6B42F000421A63F0BD1E7977
:10353C002779B74284BF23460121C3E71F7995F849
:10354C0004C0BC453CBF2B460124CDE71A6B22F0CE
:10355C008042DBE71A6B22F00042E6E714390020C8
:10356C0024390020183900204C39002000300E403E
:10357C0008B51B4B1B4801221A700021282231F080
:10358C0063FD28220021184831F05EFD174A184BC4
:10359C0013601849184A13600A684B6DC2F307424E
:1035AC00FF2A02D0DBB2FF2B01D190231922134842
:1035BC0002EB820103EBD1010160DB000521B3FBBF
:1035CC00F1F313440E4A1360FFF762FF0D4B012217
:1035DC00C3F880211A60FFF767FF002008BD00BF09
:1035EC0008390020243900204C39002014390020DF
:1035FC001C390020B081E00F183900200C39002054
:10360C001039002000E100E0064B186AC0B2052317
:10361C00C000B0FBF3F0044B1B68181A00F3070052
:10362C0040B2704700300E401039002010B5144CD9
:10363C00226B616A0A4010D5124B1B681A682AB1BA
:10364C00002119605960FFF7DFFF90474FF00043EE
:10365C00E362BDE81040FFF727BF5300F9D50A4BD2
:10366C001B681A6832B1002119605960FFF7CCFF52
:10367C0001219047024B4FF08042DA62E9E700BF2C
:10368C0000300E401839002014390020FFF7CEBF4F
:10369C0038B141B1013AB2F5006F044838BF00208F
:1036AC007047034870470148704700BF037000F033
:1036BC00027000F00D490E4A0B7810B54BB9C2E9F7
:1036CC000033C2E9023301240C7042F823000020BD
:1036DC0010BD002352F823100029F6D08142F4D0FB
:1036EC000133042BF6D10348F2E700BF84390020E4
:1036FC0074390020027000F038B504460D4601F014
:10370C00E4FDA28892B222B92A6001F0E4FD0648D9
:10371C0038BD6388142202FB034308332B6001F08D
:10372C00DAFD0020F4E700BF0B7000F038B504465A
:10373C000D4601F0CAFDA3889BB223B92B6001F0A2
:10374C00CAFD0C4838BD6388E188142202FB034390
:10375C0008332B6063885A1C92FBF1F301FB132393
:10376C009BB26380A388013B9BB2A38001F0B3FDA5
:10377C000020E7E70B7000F07FB5012380F82C30B8
:10378C0090F8323093B90C4A0368039200220490EB
:10379C0002924A680192012200920A6801698068CB
:1037AC001C33FFF749FA07B05DF804FB012BEAD094
:1037BC00002380F82C30F6E7154000007FB501237C
:1037CC0080F82D3090F8323083B9026834320D4BCA
:1037DC0003930023049002934B68019301230093FD
:1037EC000B68C1684068FFF70DFA07E0012B02D1A6
:1037FC0002682832EBE7002380F82D3007B05DF823
:10380C0004FB00BF15380000F7B5906A01A91446F7
:10381C00FFF772FF144B984220D0019B00251D61CD
:10382C009D6001F052FD019AD668074626B1D2E997
:10383C00002329462046B04701A9A06AFFF776FF6E
:10384C00A06A83889BB263B101A9FFF755FF019968
:10385C002046FFF7B3FF384601F03DFD012003B0D1
:10386C00F0BD84F82D30F6E70B7000F0427E30236B
:10387C005343044A1A44437F03EBC2039B0018686A
:10388C00C0B270471CA0104213B51D4A002352F859
:10389C002340617F81420ED00133042BF7D102B05B
:1038AC0010BD0028FBD19DF80730002BF7D06068C5
:1038BC00FFF7DCF9F3E794F83130022BEFD1204617
:1038CC00FFF7D4FF637D2075022BE8D194F82E30DE
:1038DC0003F0FF02002BE2D102A9606801F8012D70
:1038EC00FFF724FA237D1BB194F82F30002BD8D08E
:1038FC00002384F82F306068FFF7D8F9CFE700BFBA
:10390C007439002090F8323053B903680122DA6020
:10391C001A69D007FCD55A6F42F001025A677047FA
:10392C00012B0CD103685A6C9107FCD401225A600C
:10393C009A68D207FCD55A6D42F001025A6570475D
:10394C0090F832303BB903685A6F22F001025A6783
:10395C000222DA607047012B09D103685A6C920776
:10396C00FCD45A6D22F001025A6502225A6070474B
:10397C0010B50446FFF710F90021201DFFF79AF847
:10398C00014608B1044810BD04F10800FFF792F895
:10399C000028F8D0F6E700BF0E7000F0F8B504462A
:1039AC0017460D4601F091FCA388E2889A42064620
:1039BC0005D800233B6001F08EFC1648F8BD238827
:1039CC00142202FB0343083305F1100C2A4603CAE8
:1039DC00624518605960154603F10803F6D110686A
:1039EC0018602388E188142202FB034308333B60F0
:1039FC0023885A1C92FBF1F301FB13239BB2238007
:103A0C00A38801339BB23046A38001F064FC0020F4
:103A1C00D4E700BF0A7000F073B504460D46C07DB4
:103A2C00E67E002934D001230422314602F0EEF860
:103A3C0001230222217F207E02F0E8F894F8313035
:103A4C00022B16D100230122617F607E02F0DEF88A
:103A5C0000230422A07EA17F02F0D8F80123627F0C
:103A6C00607E01930093114602F084F8002002B0AE
:103A7C0070BD032BFAD100230122617F607E02F01E
:103A8C00C5F800230422A17FA07E02F0BFF8EDE769
:103A9C000B460A46314602F0B9F82B462A46217FDE
:103AAC00207E02F0B3F894F83130022B10D12B4663
:103ABC002A46617F607E02F0A9F82B462A46A07E3A
:103ACC00A17F02F0A3F8627F607E01950123C9E714
:103ADC00032BCBD12B462A46617F607E02F096F8F1
:103AEC002B462A46CFE790F8323013B90368186991
:103AFC007047012B1CD103689B6803F00200DA07A6
:103B0C0048BF40F00100590748BF40F008001A07B1
:103B1C0048BF40F02000D90648BF40F040009A064C
:103B2C0048BF40F080005B0603D540F4005070475E
:103B3C00002070472DE9F3410D460446002879D04A
:103B4C0001F0C3FB012D06463BD1A36A9B889BB2B7
:103B5C00002B3DD06068FFF7C9F80023A06A84F8F9
:103B6C002D3083889BB273B101A9FFF7C5FD019974
:103B7C006068364F0831FFF701F9019B1F61A06A9D
:103B8C0083889BB253BB2046FFF7ADFF8304FAD565
:103B9C00023D012D10D8A068FFF7A8F80023606A39
:103BAC0084F82C3083889BB23BBB94F83130032BC8
:103BBC0002D02046FFF7C4FE304601F08CFB0020FB
:103BCC0009E0022D38D1636A9B889BB2002BDFD1B0
:103BDC0001F081FB1E4802B0BDE8F08101A9FFF79E
:103BEC00A5FD019BD3F80C80B8F1000FC7D09B68E2
:103BFC00002239462046C047C1E76946FFF77CFDE5
:103C0C000099A068114F0831FFF7B8F8009B1F61AD
:103C1C00606A83889BB2002BC7D06946FFF786FD8C
:103C2C00009BDD68002DF3D09B68002239462046AE
:103C3C00A847EDE70748CEE7032DA9D1A36A9B88D7
:103C4C009BB2002B86D1636A80E700BF097000F03D
:103C5C00087000F0027000F0436A9888C0B2704798
:103C6C002DE9F3410546406A84889846A4B20023A6
:103C7C000E461746CDE900333CB16946FFF73CFDD3
:103C8C0001A90446A868FFF779F8009971B16CB9DD
:103C9C004868019BC01A3860C8F800300B68336064
:103CAC002846FFF720FF02B0BDE8F0810021C8F8DC
:103CBC00001039603160F3E7836A9888C0B27047AE
:103CCC002DE9F3410546806A84889846A4B2002306
:103CDC000E461746CDE900333CB16946FFF70CFDA3
:103CEC0001A904466868FFF749F8009971B16CB9ED
:103CFC004868019BC01A3860C8F800300B68336004
:103D0C002846FFF7F0FE02B0BDE8F0810021C8F8AC
:103D1C00001039603160F3E7007D70472DE9F04108
:103D2C0004460E461746FFF7B3FC804650BB0920ED
:103D3C0001F0E2FA0546A26A93889BB213B194F89B
:103D4C002E3013B394F8322022BB23681D6915F072
:103D5C00020533D0012384F83030002A3FD1374498
:103D6C00BE42206836D103699E06FCD555B994F83D
:103D7C003230002B42D123685A6F22F002025A676C
:103D8C000822DA604046BDE8F081002DD4D0FFF760
:103D9C0017F8D0E7012A1BD123689D6815F002059E
:103DAC00D8D1596C8807FCD40421596099688907CB
:103DBC00FCD5596D41F002015965CBE70421D9605E
:103DCC0019698907FCD5596F41F002015967C1E7A0
:103DDC000025BFE716F8011B02F04EFAC0E7012AD6
:103DEC00D0D13744B742206803D183681907FCD57A
:103DFC00BCE716F8011B02F044F8F3E7012BC1D124
:103E0C0023685A6C9207FCD45A6D22F002025A6550
:103E1C0008225A60B6E7000010B50446B0B190F81D
:103E2C002E3033B990F83130022B0AD06068FEF78F
:103E3C001DFF94F82E300133DBB284F82E300020B5
:103E4C0010BDFFF713FD0028F3D1EFE70048F7E7AB
:103E5C00027000F010B50446D0B190F82E30CBB102
:103E6C0090F82E30012B06D190F83130022B0AD06D
:103E7C006068FEF71BFF94F82E30013BDBB284F830
:103E8C002E30002010BDFFF7F1FC0028F3D1EFE736
:103E9C000148F7E70148F5E7027000F0057000F003
:103EAC0037B590F83150022D044618D1A37F407DD0
:103EBC0001229A40A37E30215943134B0B4410B975
:103ECC0003F1806303E0012805D103F1C0631A609C
:103EDC00002003B030BD217D0029F6D1F0E7012D83
:103EEC00F6D1037D73B911238DF80730FFF794FFDA
:103EFC002A460DF107012046FFF710FF2046FFF779
:103F0C00A9FFE5E71323EFE70CA0004090F8313050
:103F1C00032B05D00229417518BF0175FFF7C0BFEF
:103F2C0000487047057000F010B5044600283AD0E0
:103F3C000321FFF7FFFD00212046FFF7E7FF0021DB
:103F4C002046FFF769FD94F8323003BB23680A2240
:103F5C00DA600021206A00F0F1FD94F83130032B77
:103F6C0003D00021607FFEF787FF6068FEF7EEFD4F
:103F7C00A068FEF7EBFDFEF7C9FD636A0020188010
:103F8C0058809880A36A18805880988010BD012BA7
:103F9C00DFD1206801F061FF23685A6C9207FCD4D2
:103FAC000A225A60D5E70148F0E700BF027000F022
:103FBC00F0B587B004461646FFF76AFB0546F0B924
:103FCC00CDE9011604936A460E4B606A039601A96B
:103FDC000593FFF7E3FC054688B994F82C3073B9C8
:103FEC002046FFF78FFC00992046FFF7C5FB94F89D
:103FFC003130032B03D025752046FFF751FF28469F
:10400C0007B0F0BD017000F073B5506A01A91446F9
:10401C00FFF772FB334B98422FD094F83200019B80
:10402C00002836D12268116C11F4007128D02E4969
:10403C00196198604FF40073936401F046F901998B
:10404C00CD68064635B14A688B682046D31A0A6893
:10405C000969A84701A9606AFFF768FB606A85884F
:10406C00ADB2002D2FD001A9FFF746FB01992046D8
:10407C00FFF782FB304601F02EF9012002B070BD33
:10408C00106CC5051BD51948186199604FF48073E5
:10409C00D2E7012813D12268D16A11F0800106D031
:1040AC00114919610021996080235363C5E7D06AD7
:1040BC00400604D50D48186199604023F5E70022AD
:1040CC001A619A60B9E7012323752046FFF7E8FED1
:1040DC0094F8313084F82C50032BCBD02046FFF7CA
:1040EC002FFCC7E70B7000F00D7000F00C7000F0A7
:1040FC002DE9F041094F04460D460FCF88B001AEB3
:10410C000FC697E8070086E80700002C00F0A9828C
:10411C0045B9034E304608B0BDE8F0817C6B030016
:10412C00037000F034220021204630F08DFF204631
:10413C00FFF7C0FA06460028ECD12B7C84F831300E
:10414C00CB4A2B682360934284F8320040F07B8189
:10415C00C84B2362C84BE3604FF440232361D5E97D
:10416C0006230026626216805680968084F82C60A6
:10417C00A3621E805E809E806B6803936B89ADF892
:10418C001430AB89ADF81230AB7B8DF810300121B7
:10419C00EB7BBA4884F82D6084F82F6005278DF8E6
:1041AC0016308DF8117000F0C9FC0121B44800F0F4
:1041BC00C5FC0121206A00F0C1FC01A928688DF81A
:1041CC00046002F01BF828686A7A816F2B7ADFF89A
:1041DC00A0C221F4F85121F01F01114341EA03213F
:1041EC008167032141672068604540F05781BB42DD
:1041FC0016D9981F042840F26C81A3F10B00B84229
:10420C0040F26981A3F11100062840F26681A3F106
:10421C001801062940F263811F2B14BFFF263E466E
:10422C00042AE67540F25D81511F042940F25B813E
:10423C00A2F10A01052940F25881A2F110010629C8
:10424C0040F25581A2F11701072940F252811F2A31
:10425C0014BFFF2100212176002B58D0012B56D002
:10426C00022B54D0032B52D0042B50D0052B4ED004
:10427C00062B00F04881072B00F04781082B00F03B
:10428C004681092B00F045810A2B00F044810B2B51
:10429C0000F04F810C2B00F02E810D2B00F02D81A6
:1042AC000E2B00F02C810F2B00F02B81102B00F02B
:1042BC002A81112B00F02381122B00F02281132B69
:1042CC0000F02181142B00F02081152B00F01F81B0
:1042DC00162B00F01E81172B00F01D81182B00F0FF
:1042EC001C81192B00F01B811A2B00F01A811B2B3F
:1042FC0000F019811C2B00F018811D2B00F0178188
:10430C001E2B00F016811F2B0CBF0723FF23E37617
:10431C00002A00F08881012A00F01D81022A00F099
:10432C008481032A00F08381042A00F08281052A0B
:10433C0000F00781062A00F00681072A00F00581AB
:10434C00082A00F00481092A00F003810A2A00F0EF
:10435C0072810B2A00F071810C2A00F0EC800D2A7E
:10436C0000F0EB800E2A00F0EA800F2A00F0E980C2
:10437C00102A00F0E280112A00F0E180122A00F0ED
:10438C00E080132A00F0DF80142A00F0DE80152A6A
:10439C0000F0DD80162A00F0DC80172A00F0418145
:1043AC00182A00F04081192A00F0D5801A2A00F052
:1043BC003C811B2A00F03B811C2A00F03A811D2A0B
:1043CC0000F039811E2A00F038811F2A14BFFF2308
:1043DC00002323776B7C6376AB7C6377EB7CA376D3
:1043EC002B7DA37701212046FFF716FB06460028FC
:1043FC007FF490AE00F069FF2F7C032F804640F0D5
:10440C0020812B682A8CDA675A6E42F004025A66B5
:10441C005A6F42F030025A6728684FF0FF338364BA
:10442C002B7C032B0CBF0521042101F0B7FE2B685C
:10443C004FF44062DA602046FFF79AFA064640468F
:10444C0000F049FF66E60F4A934206D10E4B2362F9
:10445C000E4BE3604FF4502380E60D4A93427FF4F9
:10446C0058AE0C4B23620C4BE3604FF4602375E6A3
:10447C00000001400032040001000C004041050026
:10448C0000350A00000401400042040001000D0048
:10449C00000801400052040001000E00DFF8D4C1F6
:1044AC0060455AD1052B7FF6BBAE981F042810D956
:1044BC00A3F10B0005280ED9A3F1110006280CD985
:1044CC00A3F1180106290AD91F2B14BFFF260526B4
:1044DC00A6E60126A4E60226A2E60E46A0E63E4685
:1044EC009EE60021B7E60121B5E60221B3E60321E1
:1044FC00B1E60521AFE6072309E7082307E70923FF
:10450C0005E70A2303E70B2301E70C23FFE60D2342
:10451C00FDE60E23FBE60F23F9E60023F7E6012365
:10452C00F5E60223F3E60323F1E60423EFE6052385
:10453C00EDE60623EBE608234BE7092349E70A23BC
:10454C0047E70B2345E70C2343E70D2341E70E23F5
:10455C003FE70F233DE702233BE7434988427FF4C3
:10456C00D8AD002B47D0591E0C2946D9A3F10E010A
:10457C0006298CBFFF2105210C2AE17541D9A2F136
:10458C000D0106293BD9A2F11401092939D91F2A99
:10459C0014BFFF2100212176002B3ED0591E0C297F
:1045AC0031D90E2B31D00F2B31D0102B31D0112B08
:1045BC0031D0122B31D0132B31D0142B14BFFF233D
:1045CC0007230C2AE3763AD90D2A2AD00E2A2AD0B0
:1045DC000F2A2AD0102A2AD0112A2AD0122A2AD0FD
:1045EC00132A2AD0A2F11403092B28D91F2A14BF8D
:1045FC00FF230523EDE61946BEE7FF21BCE70521A5
:10460C00C9E7FF21C7E7FF23DBE70023D9E7012335
:10461C00D7E70323D5E70423D3E70523D1E7062304
:10462C00CFE70023D5E60123D3E60323D1E6042309
:10463C00CFE60523CDE60623CBE60723C9E6FF2309
:10464C00C7E6022F7FF4E8AE607F0849FEF714FC42
:10465C00FEF704FCA675267567752046FFF720FC4F
:10466C00DAE6034E56E500BF00080140953800001D
:10467C00027000F00004014090F83120012A10B5BE
:10468C00034610D102290ED0827D8A4201D100202E
:10469C0010BD997511B9FFF7DDFBF8E70129F6D1CB
:1046AC00FFF7BAFBF3E70148F2E700BF057000F033
:1046BC00F0B587B004461646FEF7EAFF054600BB88
:1046CC00CDE9011604936A460F4BA06A039601A923
:1046DC000593FFF763F9054698B994F82D3083B923
:1046EC0000F0F3FDA36A9B889BB2064633B1009998
:1046FC002046FFF763F8012384F83030304600F091
:10470C00EAFD284607B0F0BD017000F070B588B026
:10471C000D220021294C2A4E04A830F095FC0025CE
:10472C000223012127488DF81010CDE9015503957E
:10473C008DF80A3000F002FA294601AA204601F051
:10474C00C4FC4FF6FF73E3618DF81250354604A993
:10475C00204601F067FC1C4800F0D2FA9DF812309C
:10476C00D8400133DBB20A2B30608DF8123002D8FE
:10477C00164B9842EBD81648164C00F0C1FA164965
:10478C00B1FBF0F12868154A0025E1FB0045002338
:10479C002046294630F030FA114B084A1860114B6C
:1047AC0000201870936923F0100393610E4B4FF4A3
:1047BC000062C3F880211A6008B070BD008001400F
:1047CC0088390020000204004041050080841E004E
:1047DC007000020020A1070000B0710B40420F00D6
:1047EC008C3900209039002000E100E01E4BF7B519
:1047FC0019681E4C1E4A1F4E0025E0FB0145204641
:10480C002946002330F0F8F9DFF86CC04FF6E85475
:10481C0000254FF6E75E4FF0FF378D4208BF84420C
:10482C0011D380B260B1144A516A89B2536A9BB2F7
:10483C00ADF80630BDF806305B1A9BB29842F5D83D
:10484C00002003B0F0BDDCF8242092B2DCF8243058
:10485C009BB2ADF80430BDF804309B1A9BB2734583
:10486C00F4D980197941D8E78839002020A10700B4
:10487C0040420F001802FFFF00800140044BDA6831
:10488C00D20604D510225A61024B01221A707047CD
:10489C0000800140903900202D4B002A70B52D4D21
:1048AC00446B08BF1D462C4B14BF102600269842A3
:1048BC003AD102293FD004D8B9B1012921D0002323
:1048CC002DE0062931D0812935D00329F7D1234B8E
:1048DC001A6819681B68120C1B0C03F0F00302F425
:1048EC00FE421A43C1F3034318E01D490B680A68E2
:1048FC0003F4FE4302F00F021A430B6803F0F003BB
:10490C000CE0174A1368116812681B0C120C02F0A9
:10491C00F00203F4FE431343C1F303421343B340C9
:10492C002C400D4A2343536370BD0E4B1A681B6811
:10493C0002F00F02E2E7094A13681168126803F4E7
:10494C00FE4301F00F010B4302F0F002E6E700BF5B
:10495C000080FFFFFFFF0080002000401482E00F6A
:10496C001082E00F1882E00F38B50C4602238360EA
:10497C00002289780546FFF78FFF207961786279EC
:10498C00030243EA016343EA0243E27843EAC203C7
:10499C00E2790AB143F00053227A0AB143F00403DE
:1049AC00A2790AB143F00203627A0AB143F001031F
:1049BC00F328A27806D12AB903299CBF23F070638F
:1049CC0043F0806351B20029ACBF43EA421343F079
:1049DC00E0032B616B69002923F4F21323F0070326
:1049EC00BCBF22F080021343227843EA4243E27AAE
:1049FC000AB143F480436B616D0105F18445A37AE0
:104A0C00AB6038BD0C4B984210D90C4B984210D966
:104A1C00022201230A490B600A49D1F8003123F024
:104A2C00807343EA0263C1F80031704700221346D9
:104A3C00F0E70122FBE700BF0048E8010090D0033B
:104A4C004000C84300400E400E4B30B50E4C5B6826
:104A5C00C9B2002304EBC30215798D4203D154F87B
:104A6C00335085420BD20133052BF3D10322054978
:104A7C004B6823F0407343EA02634B6030BD5279BC
:104A8C00F5E700BF00000E40A86B030038B5074CDB
:104A9C0041F67133256C236401F064FC0021FFF7AF
:104AAC00D3FF0DB10023236438BD00BF00000E40BE
:104ABC00044BD3F84421D20703D4D3F8402110423D
:104ACC00FBD1704700400E400C4AD2F89030516A2E
:104ADC000B4B21F0300141F0100110B55162146BF9
:104AEC00C0F3C31103310F2903EA040328BF0F21BC
:104AFC00034343EA0173136310BD00BF00400E4033
:104B0C0000F8FF0F044A1368002BFCD1034B5868C4
:104B1C00C0F30140704700BFC800C64300300E40D0
:104B2C0038B5054C41F67133256C2364FFF78CFFC7
:104B3C000DB10023236438BD00000E40C0F30322E6
:104B4C00013A38B50546092A13D8DFE802F02313D9
:104B5C001212051619121C20104C0020C5F3043536
:104B6C0008B1FFF7A5FF04F1047405EBC404A4001D
:104B7C00216038BD00200A4CF0E70120094CEDE71C
:104B8C001020094CEAE74FF48030084CE6E700208F
:104B9C00074CE3E70020074CE0E700BFB0400E40B5
:104BAC00C0400E40E0400E40E8400E40F0400E4049
:104BBC0050410E4000400E4000F00F000138072815
:104BCC0048D8DFE800F0040F1947232D4735244B54
:104BDC00D3F8943003F00703023B052B3CD8214A51
:104BEC00D05C70471E4BD3F8803003F00703013BB9
:104BFC00042B33D81C4AF3E7194BD3F8843003F059
:104C0C000703013B042B29D8184AE9E7144BD3F8C6
:104C1C00883003F00703013B042B1FD8144ADFE74D
:104C2C000F4B1B6F13F0010F14BF092007207047A7
:104C3C000B4BD3F85C3103F03003202B06D0302B18
:104C4C0006D0102B0CBF07200120704704207047A2
:104C5C0008207047002070470520704701207047DE
:104C6C0000400E40986B03009E6B0300A36B030087
:104C7C009E6B030008B50146FFF79EFF1C4B994243
:104C8C0012D01C4B994213D01B4B994204D11B4B95
:104C9C00D3F8800000F007000138042825D8DFE89D
:104CAC0000F00B0F17130B00144BD3F88400F1E733
:104CBC00124BD3F88800EDE7BDE8084001F0B0BB1B
:104CCC00BDE8084001F0B2BBBDE8084001F0ABBB49
:104CDC0001F070FB094BD3F80031C3F300635A1C8D
:104CEC0001239340B0FBF3F008BD0020FCE700BFAC
:104CFC00030020000500240002001E0000400E40AE
:104D0C0000F47810B0F5A01F08B56CD021D8B0F520
:104D1C00202F07D00AD8B0F5003F59D0B0F5802F1E
:104D2C004BD0A8BBBDE8084001F020BBB0F5602F0C
:104D3C0000F08380B0F5801F00F08780B0F5402F25
:104D4C0026D101F013FB474BD3F81431C3F30423E2
:104D5C003AE0B0F5001F59D013D8B0F5D01F57D09A
:104D6C00B0F5F01F3AD0B0F5B01F11D13E48FFF7A7
:104D7C0081FF3C4BD3F8202102F00F02012393401A
:104D8C0023E0B0F5381F38D004D8B0F5101F52D03E
:104D9C00002008BDB0F5401F43D0B0F5481FF7D137
:104DAC003248FFF709FF07284FD0082850D00428B5
:104DBC00EED1BDE8084001F00FBB01F0D7FA294B4A
:104DCC00D3F80C31C3F308230133B0FBF3F0E0E765
:104DDC0001F0CCFA234BD3F80831F3E72248BDE8B5
:104DEC000840FFF747BF2248FFF744FF1D4BD3F89D
:104DFC00303103F00303D840CBE71B48FFF73AFFF1
:104E0C00184BD3F82031C3F30113F4E71948E6E744
:104E1C001848FFF72FFF134BD3F82821C2F30112C8
:104E2C00ACE71448FFF726FF0E4BD3F82831C3F339
:104E3C0001231A1DA2E70E48D1E70F48FFF7BCFE6D
:104E4C00072802D00928A3D16CE70C4B1868A0E7FF
:104E5C0001F08CFA034BD3F80031C3F3042303FBAA
:104E6C00000096E700400E4002001E00B800320021
:104E7C00050024000300200006000E00742F002003
:104E8C000E4B5A6A12F0300F04D0202913D030295F
:104E9C0000D011B94FF4400200E0094AD3F8901049
:104EAC0032EA0101FAD1520246BFD3F8A000C0F396
:104EBC008020012070474FF40002EFE700400E40C5
:104ECC00FFF3E17F02280AD129B1064B4FF4806031
:104EDC00C3F8A800596612B10220FFF7D1BF012018
:104EEC00704700BF00400E402DE9F34106460F46C7
:104EFC009046072867D8DFE800F0048F25208A66E3
:104F0C00660D4FF400754FF4807408230920002FB0
:104F1C0068D05EE001A801F06BF89DF80530012B1C
:104F2C0006D94FF400454FF480440E230F20EEE7D2
:104F3C009DF80430022BF4D8FEE70124022500234F
:104F4C002046E4E700294AD0364A536A13F0300F62
:104F5C003CD1354BDB6B536ADB0705D5536A23F029
:104F6C00300343F0100353620424022303202F4D1B
:104F7C002C4A2B4414669B001A68002AFCD0B8F10A
:104F8C00000F20D00544AD002B68002BFCD0022E66
:104F9C0019D1C7B1234F796A11F001011BD001223D
:104FAC0020213046FFF78EFFD7F89C6001220021AC
:104FBC000220FFF799FFC6F30A00FFF785FD3C6658
:104FCC002B68002BFCD002B0BDE8F0810424022336
:104FDC0003200027CBE73046FFF752FFE4E7082514
:104FEC00022303200F4A0121156601FA03F3D2F8BC
:104FFC0090101942FBD1B8F1000FE4D00123094AFB
:10500C0003FA00F0D2F890300342FBD1DBE7202505
:10501C001024042305207AE780254024062307204A
:10502C0075E700BF00400E4000300E408004F210C7
:10503C00112870B506460C4626D1042912D101F070
:10504C00CBF90546A8B10021284600F051FB06F02B
:10505C000F06013E072E74D8DFE806F025186F7393
:10506C006D94739F052904D1674B1D68674B9D4256
:10507C00E9D8023C0A2C64D8DFE804F02053454CF4
:10508C00636363636357C1000025E0E7604D013C37
:10509C000C2C56D8DFE804F074565D555564555504
:1050AC00555355556D00023C0A2C4AD8DFE804F0E4
:1050BC00073A2C3349494949493E41000025002013
:1050CC00042401221146FFF70FFFFFF7DFFC1DB18F
:1050DC00504A1368002BFCD14F4B50485C67FFF7CC
:1050EC000FFEFFF78FFC01F065F90446FFF70AFD90
:1050FC0001462046FFF714FD1DBB28460121BDE8E3
:10510C00704000F0F5BA00254548FFF77BFC022003
:10511C000446D6E700254248FFF774FC012403201F
:10512C00CFE7002501200324CBE70025032005242D
:10513C00C7E70724C9E73B4DA9E73B4DA7E7042385
:10514C002B6070BD012211460020FFF7CDFE02231B
:10515C00F6E7012211461046FFF7C6FE0123EFE7E2
:10516C0001F028F9FFF74EFC304B01221A600323A3
:10517C00E6E7012211460720FFF7B6FE0523DFE71D
:10518C000023DDE7072C04D0092CDAD1224B0122B5
:10519C0001E0214B00221A67D3E7013C072CD0D841
:1051AC0001A353F824F000BF075200004F51000038
:1051BC004F510000F95100004F5100004F510000B9
:1051CC00EB510000D551000003221349D1F85C319A
:1051DC0023F0300343EA0213C1F85C31B1E701223A
:1051EC0011460420FFF780FE0122EEE70122114652
:1051FC000220FFF779FE0222E7E70022E5E7FFF73E
:10520C0045FC0025072467E7802F0020002D310185
:10521C0080400E40C800C64300400E4000250A00E6
:10522C000148E80188400E4084400E400816C843EF
:10523C0010B504461120FFF7BFFC0122002102200B
:10524C00FFF752FE174A217C536A23F0010302290F
:10525C0008BF43F001035362134B21781960637A42
:10526C00A18843EAC123D362136BA07A217A03F09D
:10527C007F630343E08843EAC02343EAC11303314D
:10528C000F2928BF0F2143EA01731363A37B617BB2
:10529C001B0143EA0133E17B0B43217B43EA0143CE
:1052AC00536310BD00400E40A004C843EFF31080C0
:1052BC0072B6704700B962B67047602383F31188E9
:1052CC007047002383F311887047EFF3118060233C
:1052DC0083F31188704780F3118870474109054AA0
:1052EC0000F01F0352F82100D840C04300F0010029
:1052FC00704700BF00E100E010B50446EFF31083E7
:10530C00DB0733D4FFF7EAFF00282ED1002CA7BF10
:10531C0004F1604404F5614404F00F04144BACBF79
:10532C0094F800231A5D5209EFF3118313B1B2EB19
:10533C00531F1BD20F4C6368C3F30803ABB1103B74
:10534C00DBB259B20029B5BF03F00F0301F1604382
:10535C00043B03F56143B6BF1B1993F80003187E99
:10536C004009824234BF0020012010BD0120FCE71F
:10537C0014ED00E000ED00E0024A1368002BFCD1B4
:10538C00704700BFC800C64342EA032340F2011233
:10539C0093422BD0B3F5817F08D2012B1DD030D393
:1053AC00B3F5807F31D0002213461CE040F201227D
:1053BC00934222D006D8B3F5007FF4D1174BD3F823
:1053CC0070310DE0B3F5407F23D040F201329342AF
:1053DC00E9D1124BD3F878310BE0104BD3F8743180
:1053EC00C3F30722DBB203600A6070470B4BD3F8A0
:1053FC0074311A0EC3F30743F5E7084BD3F8783131
:10540C00EEE7064BD3F86C31EAE7044BD3F86C317A
:10541C00EFE7024BD3F87031EBE700BFB081E00F40
:10542C0008B5FFF7A9FF084B19685A68C1F30121A9
:10543C00C2F3014291421A688CBF42F0100222F072
:10544C0010021A6008BD00BF00300E40064B1B68EE
:10545C00DB0608D5054B1B69C3F30443082B02BFBD
:10546C00034B044A1A60704700300E4000400E4057
:10547C00802F0020C0EA2101154B0228D3F880317F
:10548C0013D0032814D0012814BFDBB2C3F30723B5
:10549C001B0323F47042B1B9BAB90E49CA6E22F497
:1054AC0070421343CB6601207047C3F30743EFE709
:1054BC001B0EEDE70749D1F8E02022F470421343AC
:1054CC00C1F8E030EFE7002AF4D00020704700BFAD
:1054DC00B081E00F00300E4038B5234B234D1B78C4
:1054EC0023492448C3F10202102393402B6145F653
:1054FC000E03D1F88041C1F88031036823F0AA0370
:10550C00DB05DB0D0B66FFF737FF2B6813F0100F75
:10551C0004F00104054614D0D1F84031DA01FBD473
:10552C00154B1B680B61154B197805290DD1144BC4
:10553C001868FFF721FF0D4B5968C1F30141FFF7C4
:10554C00EFFA0E4B1978052902D01120FFF770FDE8
:10555C002B68DB075EBF064B02221A661CB1044B9C
:10556C000022C3F8802138BDA539002000300E4040
:10557C0000400E4094390020A03900209E390020B4
:10558C00802F002010B50B4C0B4BD4F890201A60D8
:10559C001120FFF711FB094B1870FFF7EDFE084BBC
:1055AC00084A5B68C3F301431370074B22691A6006
:1055BC0010BD00BF00400E40943900209E390020E1
:1055CC0000300E40A5390020A039002070477047EC
:1055DC0010B5044608B1FFF7D5FFFFF721FF0A4AC3
:1055EC00136943F004031361FFF7F0FF30BFFFF7BB
:1055FC00EEFF1CB1BDE81040FFF76EBFFFF726FFB2
:10560C00BDE8104000F0D6BE00ED00E010B5044639
:10561C0008B1FFF7B7FFFFF703FF124BD3F8802158
:10562C0045F60E01D207C3F8801148BF00224FF493
:10563C002071196648BFC3F880210B4A136943F0E7
:10564C0004031361FFF7C2FF30BFFFF7C0FF1CB1AB
:10565C00BDE81040FFF740BFFFF7F8FEBDE8104073
:10566C0000F0A8BE00400E4000ED00E00A4B9A6925
:10567C00996922F4403242F4003241F440314AF646
:10568C00E85098609A6199619A6199619A619961FF
:10569C009A6199619A61704700300E40F8B5124BCF
:1056AC00124DD3F8003104460F4600F05FFE06465B
:1056BC00FFF762FE6A68C2F30142944213D0022CD7
:1056CC0002D12146FFF72CFAC4F1020210239340B9
:1056DC002B610FB1FFF750FE2CB921463046BDE8C7
:1056EC00F840FFF71DBAF8BD00400E4000300E40E8
:1056FC0038B50C4B0D46D3F8004128B900F036FEF6
:10570C00C4F3042404FB0000074B1B7829463BB16F
:10571C00064B984204D80220BDE83840FFF7BEBFC4
:10572C000020F9E700400E40A4390020FF2C310185
:10573C000378134A002B437870B514BF0426002657
:10574C00002B8378946914BF02250025002B037964
:10575C0024F03F0443EA0403C47814BF0821002159
:10576C00012C08BF43F0010333432B430B439361DC
:10577C001368417923F4403343EA0143136070BD4D
:10578C0000300E40224B4AF6E85210B5596B5A6362
:10579C009A6FD407FCD41B6C13F003031EBF1D4A75
:1057AC0001241460834203D108B91A4B186010BD50
:1057BC00032B17D0B3B1164A1446936FDB07FCD4F6
:1057CC00136C23F0030303431364A36F13F001035F
:1057DC00FBD100300F4A18BF01200129106008BF0F
:1057EC006363E4E7431E012BE5D8094B4FF4002219
:1057FC00DA629A6FD207FCD41A6C22F0030242F0E0
:10580C0001021A64024A536A1C03FCD5D3E700BF99
:10581C0000300E40B40AC6432DE9F04F002389B086
:10582C00CDE90233CDE90433CDE90633A0F5E163CC
:10583C00B3F5966F05460191934603D9002009B044
:10584C00BDE8F08F4D4BB0F5E16F8CBF4FF0010A06
:10585C004FF0000AD3F8683100F083801A0EC3F3BE
:10586C000743079204934FF496694FF4E164DFF811
:10587C001081D8F84C70C7F301773B46524605A906
:10588C0002A8FFF781FDD8F8E060C6F30126334685
:10589C00524606A903A8FFF777FD0798049A2C1B1C
:1058AC00811A6143B1FBF9F3D1182CBF01230023FA
:1058BC008842C3D3002BC1D1069A0398131A6343B1
:1058CC00B3FBF9F310EB030A2CBF01230023524561
:1058DC00B4D3002BB2D1059B029A981A4443B4FB63
:1058EC00F9F912EB09092CBF012000204B45A5D377
:1058FC000028A3D1BBF1000F0ED0D8F85C3023F4F4
:10590C00FE4323F00203B5F5E16F43EA012318BF10
:10591C0002200343C8F85C30019B63B30021384676
:10592C00FFF7AAFD002889D001213046FFF7A4FD1E
:10593C00002883D0124A536ED14538BFD14623F488
:10594C00FF73B9F1E70F23F0010328BF4FF0E7090C
:10595C00B5F5E16F18BF43F0010343EA4903536601
:10596C006DE7C3F30722DBB2079204934FF4167969
:10597C004FF496647BE7012061E700BFB081E00F34
:10598C0000300E40304B1A6FD96CC90702F0070279
:10599C0042D5012A40D9132851D9143813288CBF69
:1059AC00102308232849013BCA6C180322F47F42B8
:1059BC0040EA03231343CB64244BCA6C1B88C2F309
:1059CC0003222833013202EB820003EB5303B3FBB7
:1059DC00F0F3C86C013B072B20F0EE6028BF0723C7
:1059EC0040F4801040EA0363CB64194BB3F90030E8
:1059FC00002B10DB2833500800EB420203EB53035F
:105A0C00B3FBF2F30A6D072B28BF072322F07002B9
:105A1C0042EA03130B657047DB6CD90706D4012AE5
:105A2C0004D809280BD90A380928B8E7064BDB6CCF
:105A3C0013F00103B6D0012A03D82728AFE70423BB
:105A4C00B0E70023AEE700BF00300E409A390020CB
:105A5C009C390020054A064B1B68136F23F0070383
:105A6C001843044B10671888FFF78CBF00300E40AA
:105A7C008009C64398390020C1884A2938B50446A4
:105A8C00B0F90C504ED9B1F5FA7F4DD340F6C31393
:105A9C00994294BF4FF000514FF040512748C36CCE
:105AAC0023F0405323F00103002DA8BF43F0010362
:105ABC000B43C364D0F8E03043F44073C0F8E030DB
:105ACC00C36E43F08073C3661D4B186800B104208D
:105ADC00FFF7C0FF1B4B218919801B4BB4F90C201D
:105AEC001A801A4BA0881880FFF74CFFA37BF3B1E8
:105AFC00012B20D0012211466088FFF78DFE054650
:105B0C0070B10E4A6078D36B43F48063D363FFF7B4
:105B1C0039FEA37AA3F12002534253410C4A13607D
